:0200000057C0E7
:10000200FECFFDCFFCCFFBCFFACFF9CFF8CFF7CFA2
:10001200F6CFF5CFF4CFF3CFF2CFF1CFF0CFEFC0E1
:10002200EECF0EC1ECCF32C1EACFE9CFE8CFE7CFB6
:10003200E6CF1027E80364000A0001000010000167
:100042001000010000300037000000000000000036
:100052000D0A3E41434D20556E697420763120666B
:100062007776312031382F30342F323031360D0A45
:10007200003E41434D253032582530345825303426
:1000820058253034582530345825303458253034EA
:10009200582530345825303458253032583C000029
:1000A2003020414300000C00030046000000F89499
:1000B200EE27EFBBF1E0F5BFE5BF8DE0A2E0BB2785
:1000C200ED938A95E9F780E094E0A0E0B1E0ED934A
:1000D2000197E9F7E8EAF0E085919591009761F0E0
:1000E200A591B59105901590BF01F00105900D9273
:1000F2000197E1F7FB01F0CFE0E0EEBBEFEFEDBFE0
:10010200E4E0EEBFC0E0D2E0C3C0AA93A881A0336E
:1001120010F0AA3308F003C0E881E05314C4A881A8
:10012200A03410F0A73408F003C0E881E7530BC4F1
:100132000AC4E0E8E0936100E0E0E0936100EEE2EF
:10014200E4B9E0E0E5B9E0E2E7B9E0E0E8B9EAB94C
:10015200ECE0EBB9E0E0E4BDE2E0E5BDE8E3E6BDFA
:10016200E0E0E7BDE8BDE0938000E0938100E0932A
:100172008500E0938400E0938700E0938600E0939B
:100182008900E0938800E0938B00E0938A00E0937B
:10019200B600E093B000E093B100E093B200E093C8
:1001A200B300E093B400E1E0E0936E00E0E0E0939E
:1001B2006F00E0937000E0936900EDBBE09368008C
:1001C200E2E0E093C000E8EDE093C100E6E0E093F6
:1001D200C200E0E0E093C500E0E1E093C400E0E8A3
:1001E200E0BFE0E0E0937B00E0937F00E0937A00E1
:1001F200EBE5ECBDE0E0EDBDE093BC0008950A92B2
:10020200AA93BA93EA93FA93EFB7EA93E8E3E6BDC7
:10021200E1E0E71551F4EB2DFC2D3197BE2ECF2EE8
:100222000B2C0C2811F4E1E05E2EA2E4B2E0A4D380
:10023200E991EFBFF991E991B991A99109901895C6
:10024200EA93FA93EFB7EA93A1D51091C000009117
:10025200C600E4EFF1E096D3E12FEC7181F4E92DD1
:100262009394F0E0E05FFD4F0083E2E3E91509F4C7
:100272009924E394E2E3EE1511F4EE24F09A099145
:100282001991E991EFBFF991E9911895459818955F
:1002920050DF7894459AE2E5F0E07AD380E02ED3FD
:1002A2002296A8ECB0E0EBD3E2E0F0E074D3EDEFFD
:1002B200FFEF6ED3EEEFFFEF6ED3A0E0B0E098D188
:1002C200E4ECFFEF65D3A1E3B8EFE6D168D3E091A8
:1002D2004802F091490260914A0270914B023FD468
:1002E200DF01CB01E6E6F6E668E971E466D400D404
:1002F20060D364D33C98449AE8E8F3E143D3E1E065
:10030200AE2EE1E0E51519F455247724AE2EE1E096
:10031200EA1509F07AC0A0911002AE33A1F5A091BE
:100322001102A33481F5A0911202A03561F5A091CA
:100332001302A53541F5A0911902AC3321F5A09124
:10034200150242D3FF93EF93A09114023DD3A9D497
:10035200AF91BF91AE0FBF1FE42DF0E0EA17FB078C
:1003620091F4A091180230D3FF93EF93A09117025A
:100372002BD397D4AF91BF91AE0FBF1FE62DF0E004
:10038200EA17FB0709F033C0459AE3E7F0E000D330
:10039200E32D1DD3E0910002F09101021DD3E09103
:1003A2000202F091030218D3E0910402F0910502D7
:1003B20013D3E0910602F09107020ED3E0910802F6
:1003C200F091090209D3E0910A02F0910B0204D3E1
:1003D200E0910C02F0910D02FFD2E0910E02F09139
:1003E2000F02FAD2E62DF3D288E288D2AA96AA2484
:1003F2008824E2E38E1640F4E82DF0E0E05FFD4F42
:10040200A0E0A0838394F5CF9924A0914202B091F9
:100412004302A131E7E2BE0708F43FC0E0E0E09307
:100422004202E0934302BDD0E0935002F0935102A6
:100432006093520270935302BED0E0934402F09351
:1004420045026093460270934702CAD0E0934C0281
:10045200F0934D0260934E0270934F02A0D2AED23F
:10046200E0914802F0914902A4D2E0915002F09149
:100472005102E0930202F0930302E0914402F091F0
:100482004502E0930402F0930502E0914C02F091E0
:100492004D02E0930602F093070233CFFFCF299873
:1004A2000895299A0895AA9371D4F9DFAA8197D25F
:1004B200F8DFF12FE0E0DF01E02FF0E0EA2BFB2B89
:1004C2006CD406C1AA9360D4EADFAC8188D2A0E0E2
:1004D20033D23E2FE6DFE12F8AD2ECD37F936F93A4
:1004E200FF93EF93E02F83D2DF01CB01E8E0CDD37E
:1004F200AF91BF918F919F91AED3DF01CB01E32FDB
:1005020076D2A9D348D46AC0AA931A9310E0C7DF5F
:10051200EA81E068EA831981AA816CD21881D8C085
:100522006DD234D410E000E0BADFEC81E068EC83F5
:100532001A810B81AC8100D2A02F5CD22ED44EC086
:10054200ABE054C0ACE052C02497FCDFE0E010D432
:10055200F7DFE07181F402D4A93CE0E0BE07E0E0FD
:100562008E07E0E09E073CF4F4D3EF5FFF4F6F4F3E
:100572007F4FF9D3EDCFA6E1A5DF99C007D400E004
:1005820010E0E0DFDDDFE07139F4093CE0E01E0756
:100592001CF40F5F1F4FF6CFA7E194DF0991199169
:1005A20008952FD2EBDF10E01A3020F4E7DF32D2C9
:1005B2001F5FFACF09C025D2C7DF10E01A3020F43E
:1005C200C3DF28D21F5FFACFA981BA818B819C81B8
:1005D200EAE0F0E060E070E09CD31881259608958F
:1005E200A3E201C0A5E26EDF0895A7E25CDF0895F1
:1005F20005D22297E0E0E883E983C4D3E889E29553
:10060200E07FEE0FAE2FEA85EE0FEE0FEE0FEA2B34
:10061200AA89EA2B1E2F20E030E040E050E0EFE014
:10062200EA93A12F71DFAF85AA2342F421E030E0E3
:10063200EE85FF8515D3EE87FF8702C020E030E00C
:10064200F3D1E7E019D3BF01D901E5E015D3E62BD9
:10065200F72BAE85BF85EA2BFB2BAF01EDE0EA93CA
:10066200A42F52DFAD85AA2342F421E030E0EC85CD
:10067200FD85F6D2EC87FD8702C020E030E0D9018B
:10068200E5E0FAD2AC85BD85EA2BFB2BD0D1EEE0BA
:10069200EA93AF8139DF2FC1B1D1E9E1EA93A981B0
:1006A200BA813EDFE8E1EA93AB81BC8139DF24966F
:1006B2000895AA93E091C000E072E1F3E881E0932B
:1006C200C60041C19BD1AA81F4DFA881B98154D16E
:1006D2002396089593D1269755D310E0AC85BD8516
:1006E200E0E0F0E0ED93FC93EA89FB893196EA8B36
:1006F200FB8B3197E4912E2FE03009F4F9C0E12F02
:10070200E03031F4253211F411E001C093D1EFC091
:10071200E130A1F4253211F48DD1E8C012E040E0BD
:1007220000E02D3211F401E0E2C02B3211F44BE271
:10073200DEC0203211F440E2DAC002C0E23039F405
:1007420050E013E0203311F40068D1C003C0E3305D
:1007520009F0CDC0203310F02A3308F007C0AAE018
:100762005A9F502DE22FE0535E0FC1C0E22FE336B5
:1007720039F467D169D165D1A481AA9369D1B6C090
:10078200E33729F46BD16CD1E0D01E2F07C0E037DC
:1007920049F464D165D1E4D01E2F086002600F775E
:1007A20030E02DC0E43611F0E93611F4046002C0E5
:1007B200E53729F4E4E3F0E03AD115E00BC0E8357F
:1007C20011F4086003C0E83709F090C0EEE3F0E0EE
:1007D2002ED114E002FF11C041D14AD1AB85AA2328
:1007E20032F4EA85FB853CD2EA87FB874DE2403052
:1007F20011F01F5F01C00B7F02C030D139D100FD63
:1008020010C0151770F407FF08C002FF04C00B7F69
:10081200242F115001C020E301C020E20BD151501E
:10082200F0CF312F01FF15C0303091F003FF05C02A
:10083200EE81FF812591FBD005C0AE81BF812D9154
:10084200AE83BF83F7D0503009F051503150ECCF16
:1008520044C020E3EE81FF8178D2E887F987EE81F8
:10086200FF813296E4D0E885F985AA85BB85AE176B
:10087200BF0748F02F5FD8D0EA85FB85EA1BFB0B48
:10088200EA87FB87F0CF2A3328F003FF02C0295FF3
:1008920001C0295D04FD18C0213318F4C5D0119799
:1008A20009F409C0531710F000FF01C011C020E283
:1008B20007FF0AC020E3006102FF06C00B7F4A93D4
:1008C200C7D0503009F05150B5D0503009F05150D6
:1008D2003150AAD0129708F0BCCF00FF07C05030A9
:1008E20029F05150E0E2EA93B3D0F9CF10E0FCCE08
:1008F200AC85BD8526D24DD264960895FF92F82E1E
:10090200269744D2DE0114969DD18D01E0E0EC835E
:10091200ED83EE83EF83DE01189694D112D238D0A4
:100922001A930A93E3E6F3E033D0DE011896D2DE9F
:1009320034D22896FF900895AA93E881EEBDEDB5D2
:10094200E7FFFDCFEEB52196089558D0A991B99150
:10095200EE27FF276D91662311F03196FBCF0895A4
:100962004DD0AA27BB27E991F9910590002011F0FB
:100972001196FBCFFD010895ED91FD913196FE9305
:10098200EE930895BE2ECF2E5524E1E07E2E0895DB
:10099200FA93EA930895FCDFE0E0F0E0F9CF22DE7B
:1009A200E0934802F093490260934A0270934B022B
:1009B2000895E0930002F0930102089516DEE09399
:1009C2000E02F0930F020895A0DBF0E00895FF27D6
:1009D20066277727D2D1089572D1CFD10895ACDF9F
:1009E200A0E0AADF1E2FA0E0A7DF0E2F0895F0E0FF
:1009F20066D10895A1DFA12F9FDF53CDBA93AA93A9
:100A020008952497E0E0E883E983EA83EB831A936D
:100A120010E00895A981BA818B819C8117D1E98365
:100A2200FA836B837C830895A885B9850895EE8344
:100A3200FF8308952A93AD85BE85EF85F8890995D0
:100A42000895E889F98908953497E88BF98B089518
:100A5200AD85BE85EF85F88909950895F2DFF4CF5B
:100A6200A889B98914966DD1E2DFAE81BF8108955C
:100A7200A889B989149665D1EA87FB8708951096EB
:100A820039F080EA9FE00197F1F7A8951197C9F72D
:100A92000895552342F4503811F4E0FF04C0319612
:100AA200691F791F6BF050E8572711F45F9373C0E9
:100AB2005F3F31F0660F000C57956795752F0895CB
:100AC2005F9300200AF073C06CC050E8192E152203
:100AD200880F991F9527550F879550E8072E0522F5
:100AE200660F771F7527550F67950895689401C0A3
:100AF200E8945F93F2DF703818F07F3F08F44BC040
:100B020056E1571BAAF4519558300EF4593030F083
:100B1200EFEFFFEF6FEF7FE777F91AC077275523E3
:100B2200B9F0EE0FFF1F661F771F5A95D1F710C05D
:100B32007727583028F0EF2FF62F672F5850F9CF2C
:100B4200552331F076956795F795E7955A95D1F744
:100B520000200AF489D05F910895689401C0E89456
:100B6200309760407040B1F0002426F0772312F4F1
:100B720000947AD0172E7EE1112032F07A95EE0F92
:100B8200FF1F661F111CF9CFEF2FF62F612D5F9308
:100B92008ADF5F910895EE27FF27662777275F9107
:100BA2000895EFEFFFEF6FE77FEF5F910895EFEFAB
:100BB200FFEF6FE77FE75F9108955F9386DF7038FD
:100BC20021F411200AF4EDCFF2CF903809F4E3CFEB
:100BD20001240894970B1BF4D4F30020F3CF792F50
:100BE2001F932F933F934F931124112722273327CB
:100BF2004427552790E2AE17BF078607410730F01A
:100C0200AE1BBF0B860B410B089401C08894551F85
:100C1200221F331F111CAA1FBB1F881F441F9A9536
:100C220051F7F901612D4F913F912F911F91662349
:100C320032F0550FEE1FFF1F661F7A9543F229DF30
:100C42005F9108950024AF0DB01D0895EA0FFB1FB8
:100C5200681F791F0895EA2BFB2B682B792B0895C7
:100C6200F195E195F0400895F09560957095E195C4
:100C7200FF4F6F4F7F4F0895EE230E2EFD0121F09F
:100C8200EE0FFF1F0A94E1F70895EE230E2EFD01E9
:100C9200BC0131F0EE0FFF1F661F771F0A94D1F7D8
:100CA2000895EE0FFF1FEE0FFF1FEE0FFF1FEE0F57
:100CB200FF1F08956E2F7F2FE0E0F0E008956F2F61
:100CC200660F660B762F08953F934F935F93002430
:100CD20011244427552730E2AA0FBB1F881F991FF2
:100CE200001C111C441F551F0E1A1F0A460B570BDE
:100CF20028F40E0E1F1E461F571F01C0A1603A9511
:100D020059F7FD01BC01D001CA015F914F913F919A
:100D1200089504D0D9DF0EF4A7DF0895E89477FF91
:100D220002C0A2DF689497FF0BC00024A095B09583
:100D3200809590951196801D901D00F8039400FAFD
:100D42000895ED91FC91119708950590F491E02D8D
:100D52000895E881F9816A817B810895A881B9812A
:100D62008A819B810895E883F9836A837B8308954E
:100D7200E883E983EA83EB8308957A936A93FA938B
:100D8200EA9308955A934A933A932A931A930A93A9
:100D920008955D814C813B812A81198108810895E2
:00000001FF
