:0200000057C0E7
:10000200FECFFDCFFCCFFBCFFACFF9CFF8CFF7CFA2
:10001200F6CFF5CFF4CFF3CFF2CFF1CFF0CFF0C0E0
:10002200EECF08C1ECCF2CC12DC1E9CFE8CFE7CF8D
:10003200E6CF1027E80364000A0001000010000167
:1000420010000100000A002500000000000000006E
:100052000D0A3E4443206D65617375726520556ECD
:10006200697420763120667776312031372F30342B
:100072002F323031360D0A003E44434D253032587E
:1000820025303458253034582530345825303458EA
:1000920025303458253034582530345825303458DA
:1000A200253032583C000C00030046000000F89452
:1000B200EE27EFBBF1E0F5BFE5BF8DE0A2E0BB2785
:1000C200ED938A95E9F780E094E0A0E0B1E0ED934A
:1000D2000197E9F7E8EAF0E085919591009761F0E0
:1000E200A591B59105901590BF01F00105900D9273
:1000F2000197E1F7FB01F0CFE0E0EEBBEFEFEDBFE0
:10010200E4E0EEBFC0E0D2E0F2C0AA93A881A0333F
:1001120010F0AA3308F003C0E881E0538AC1A88135
:10012200A03410F0A73408F003C0E881E75381C17E
:1001320080C1E0E8E0936100E0E0E0936100E4B9AF
:10014200E5B9E7B9E8B9E4E0EAB9E0E0EBB9E4BD62
:10015200E2E0E5BDE8E3E6BDE0E0E7BDE8BDE0934F
:100162008000E0938100E0938500E0938400E093B7
:100172008700E0938600E0938900E0938800E09393
:100182008B00E0938A00E093B600E093B000E09326
:10019200B100E093B200E093B300E093B400E1E079
:1001A200E0936E00E0E0E0936F00E0937000E09374
:1001B2006900EDBBE0936800E2E0E093C000E8ED87
:1001C200E093C100E6E0E093C200E0E0E093C50006
:1001D200E0E1E093C400E0E8E0BFE0E0E0937F000C
:1001E200EFE3E0937E00E0E4E0937C00ECECE0934C
:1001F2007A00E0E0E0937B00ECBDE093BC00089560
:100202000A92EA93FA93EFB7EA93E8E3E6BDE1E0F4
:10021200E71551F4EB2DFC2D3197BE2ECF2E0B2C72
:100222000C2811F4E1E05E2EE991EFBFF991E9911A
:1002320009901895EA93FA93EFB7EA93B7D210911F
:10024200C0000091C600E4EFF1E04DD2E12FEC7165
:1002520081F4E92D9394F0E0E050FE4F0083E2E355
:10026200E91509F49924E394E2E3EE1511F4EE247E
:10027200F09A09911991E991EFBFF991E9911895D5
:100282005A9818958A93AA93BA93EA93FA93EFB776
:10029200EA93E0914202A2E3B2E0F0E0EE0FFF1F28
:1002A200AE0FBF1FE0917800F0917900ED93FC93BF
:1002B200A0914202AF5FA0934202A83018F0E0E0A2
:1002C200E0934202E0914202E05CE0937C0085E32D
:1002D2008A95F1F7E0917A00E064E0937A00E9917F
:1002E200EFBFF991E991B991A9918991189521DF0F
:1002F20078945A9AE2E5F0E0FCD180E0BFD12296F0
:1003020053985B9AE8E8F3E1EED1E1E0AE2EE1E04A
:10031200E51519F455247724AE2EE1E0EA1509F02B
:100322007EC0A0910002AE33C1F5A0910102A334B8
:10033200A1F5A0910202A03581F5A0910302A53595
:1003420061F5A0910602A23741F5A0910902AC33F2
:1003520021F5A0910502D0D1FF93EF93A091040261
:10036200CBD10AD2AF91BF91AE0FBF1FE42DF0E007
:10037200EA17FB0791F4A0910802BED1FF93EF9315
:10038200A0910702B9D1F8D1AF91BF91AE0FBF1FB3
:10039200E62DF0E0EA17FB0709F033C05A9AEAE7C4
:1003A200F0E0A7D1E32DABD1E0913202F09133021C
:1003B200ABD1E0913402F0913502A6D1E091360240
:1003C200F0913702A1D1E0913802F09139029CD12B
:1003D200E0913A02F0913B0297D1E0913C02F09118
:1003E2003D0292D1E0913E02F0913F028DD1E09127
:1003F2004002F091410288D1E62D81D188E23ED1BE
:10040200AA96AA248824E2E38E1640F4E82DF0E0AE
:10041200E050FE4FA0E0A0838394F5CF992477CFDC
:10042200FFCFAA93E091C000E072E1F3E881E0938C
:10043200C600219608956CD1AA81F3DFA881B98103
:10044200ED91FD913196FE93EE932396089560D13E
:100452002697A8D110E0AC85BD85E0E0F0E0ED93F1
:10046200FC93EA89FB893196EA8BFB8B3197E49105
:100472002E2FE03009F4FCC0E12FE03031F42532B8
:1004820011F411E001C047D1F2C0E130A1F42532EC
:1004920011F441D1EBC012E040E000E02D3211F442
:1004A20001E0E5C02B3211F44BE2E1C0203211F43D
:1004B20040E2DDC002C0E23039F450E013E0203304
:1004C20011F40068D4C003C0E33009F0D0C0203377
:1004D20010F02A3308F007C0AAE05A9F502DE22FED
:1004E200E0535E0FC4C0E22FE33639F41BD11DD1B5
:1004F20019D1A481AA931DD1B9C0E33729F41FD120
:1005020020D1DAD01E2F07C0E03749F418D119D113
:10051200DED01E2F086002600F7730E02DC0E43677
:1005220011F0E93611F4046002C0E53729F4E4E37E
:10053200F0E010D115E00BC0E83511F4086003C0FB
:10054200E83709F093C0EEE3F0E004D114E002FFD3
:1005520011C0F5D002D1AB85AA2332F4EA85FB851E
:1005620007D1EA87FB874DE2403011F01F5F01C0DF
:100572000B7F02C0E4D0F1D000FD10C0151770F45B
:1005820007FF08C002FF04C00B7F242F115001C0D7
:1005920020E301C020E2BFD05150F0CF312F01FF44
:1005A20015C0303091F003FF05C0EE81FF81259127
:1005B200D1D005C0AE81BF812D91AE83BF83ABD0B8
:1005C200503009F051503150ECCF47C020E3EE815A
:1005D200FF81DFD0E887F987EE81FF813296BAD0BA
:1005E200E885F985AA85BB85AE17BF0750F02F5F56
:1005F200A885B985EA85FB85EA1BFB0BEA87FB87A1
:10060200EFCF2A3328F003FF02C0295F01C0295D22
:1006120004FD19C0213320F4A885B985119709F486
:1006220009C0531710F000FF01C011C020E207FFFC
:100632000AC020E3006102FF06C00B7F4A9379D013
:10064200503009F0515067D0503009F051503150BC
:10065200A885B985129708F0B9CF00FF07C05030BE
:1006620029F05150E0E2EA9364D0F9CF10E0F9CEDC
:10067200AC85BD858AD09DD064960895FF92F82EF0
:10068200269794D0DE0114966FD08D01E0E0EC83C2
:10069200ED83EE83EF83DE01189666D076D029D003
:1006A2001A930A93ECE1F2E024D0DE011896CFDE31
:1006B20084D02896FF9008952BD0A991B991EE2766
:1006C200FF276D91662311F03196FBCF089520D05C
:1006D200AA27BB27E991F9910590002011F0119604
:1006E200FBCFFD010895BE2ECF2E5524E1E07E2ED4
:1006F2000895FA93EA93089508DDF0E00895FF273C
:10070200662777274AD008956627772746D0089527
:10071200BA93AA9308952A93AD85BE85EF85F88989
:1007220009950895E889F98908953497E88BF98B3A
:100732000895AD85BE85EF85F88909950895F2DFA4
:10074200F4CFA889B989149620D0EE83FF83AE81B5
:10075200BF810895EE83FF830895A889B98914960D
:1007620014D0EA87FB8708950024AF0DB01D0895C9
:10077200F195E195F0400895EE0FFF1FEE0FFF1F78
:10078200EE0FFF1FEE0FFF1F0895ED91FC911197E1
:1007920008950590F491E02D08957A936A93FA935F
:1007A200EA9308955A934A933A932A931A930A938F
:1007B20008955D814C813B812A81198108810895C8
:00000001FF
