:0C00000052C0FECFFDCFFCCFFBCFFACFEB
:10000C00F9CFF8CFF7CFF6CFF5CFF4CFF3CFF2CFC0
:10001C00F1CFF0CFB8C0EECF8BC0ECCFB2C0CDC01B
:10002C00E9CFE8CFE7CFE6CF1027E80364000A005A
:10003C0001000010000110000100000A0025000062
:10004C000000000000000D0A3E4443206D65617302
:10005C0075726520556E697420763220667776311C
:10006C002031382F30342F323031360D0A004144D4
:10007C00435B302E2E375D3A25642C25642C256489
:10008C002C25642C25642C25642C25642C25640DCE
:10009C000A000C00030046000000F894EE27EFBBAA
:1000AC00F1E0F5BFE5BFF8E1A895A4B7A77FA4BF21
:1000BC00F0936000E09360008DE0A2E0BB27ED932D
:1000CC008A95E9F780E094E0A0E0B1E0ED93019728
:1000DC00E9F7EEE9F0E085919591009761F0A59133
:1000EC00B59105901590BF01F00105900D92019707
:1000FC00E1F7FB01F0CFE0E0EEBBEFEFEDBFE4E0AA
:10010C00EEBFC0E0D2E08EC0AA93A881A03310F05D
:10011C00AA3308F003C0E881E0539AC1A881A03447
:10012C0010F0A73408F003C0E881E75391C190C1E7
:10013C00EA93FA93EFB7EA933ED31091C000009183
:10014C00C600E4EFF1E0BE2ECF2E5524E1E07E2E6A
:10015C00E12FEC7181F4E92D9394D4D2E050FE4F51
:10016C000083E2E3E91509F49924E394E2E3EE1544
:10017C0011F4EE24F09A29D3E991EFBFF991E991AA
:10018C0018955A9818950A92EA93FA93EFB7EA934E
:10019C00E8E3E6BDE1E0E71551F4EB2DFC2D3197DA
:1001AC00BE2ECF2E0B2C0C2811F4E1E05E2EE99123
:1001BC00EFBFF991E991099018958A93AA93BA9394
:1001CC00EA93FA93EFB7EA93E0914402A4E3B2E026
:1001DC0099D2EE0FFF1FAE0FBF1FE0917800F09188
:1001EC007900ED93FC93A0914402AF5FA09344027D
:1001FC00A83018F0E0E0E0934402E0914402E05CA7
:10020C00E0937C0085E38A95F1F7E0917A00E06455
:10021C00E0937A00E991EFBFF991E991B991A99135
:10022C0089911895E0E8E0936100E0E0E0936100CB
:10023C00E5B9E4B9E8B9E7B9EBB9E4E0EAB9E0E06B
:10024C00E4BDE2E0E5BDE8E3E6BDE0E0E7BDE8BD26
:10025C00E0938000E0938100E0938500E0938400BC
:10026C00E0938700E0938600E0938900E093880098
:10027C00E0938B00E0938A00E093B600E093B0002B
:10028C00E093B100E093B200E093B300E093B400CC
:10029C00E0936900EDBBE0936800E1E0E0936E0051
:1002AC00E0E0E0936F00E0937000E2E0E093C000C8
:1002BC00E8EDE093C100E6E0E093C200E0E0E093FB
:1002CC00C500E0E1E093C400E0E8E0BFE0E0E093CB
:1002DC007B00E0937F00E0937E00E0E4E0937C0001
:1002EC00ECECE0937A00E0E0ECBDE093BC00789499
:1002FC005A9AE2E5F0E008D280E0CFD122965398EA
:10030C005B9AE8E8F3E1BE2ECF2E5524E1E07E2E79
:10031C00AE2EE1E0E51519F455247724AE2EE1E07C
:10032C00EA1509F051C0A0910002AE33C1F5A091BD
:10033C000102A334A1F5A0910202A03581F5A09190
:10034C000302A53561F5A0910602A23741F5A091F3
:10035C000902AC3321F5A0910502D9D1FF93EF939B
:10036C00A0910402D4D10DD2AF91BF91AE0FBF1F9B
:10037C00E42DC8D1EA17FB0791F4A0910802C7D16C
:10038C00FF93EF93A0910702C2D1FBD1AF91BF9124
:10039C00AE0FBF1FE62DB6D1EA17FB0709F006C05A
:1003AC00E1E0F0E0E0933202F0933302AA248824D7
:1003BC00E2E38E1640F4E82DA5D1E050FE4FA0E00C
:1003CC00A0838394F5CF9924A0913202B09133028B
:1003DC001197A1F5E0E0E0933202E09333025A9AD0
:1003EC00EAE7F0E091D1E0913402F091350291D13D
:1003FC00E0913602F09137028CD1E0913802F09105
:10040C00390287D1E0913A02F0913B0282D1E0911E
:10041C003C02F0913D027DD1E0913E02F0913F0211
:10042C0078D1E0914002F091410273D1E091420207
:10043C00F09143026ED180E230D1A2966ACFFFCF09
:10044C00AA93E091C000E072E1F3E881E093C6006A
:10045C002196089562D1AA81F3DFA881B981ED912B
:10046C00FD913196FE93EE932396089556D12697DF
:10047C009ED110E0AC85BD85E0E0F0E0ED93FC93FF
:10048C00EA89FB893196EA8BFB8B3197E4912E2F0D
:10049C00E03009F4FCC0E12FE03031F4253211F4E6
:1004AC0011E001C03DD1F2C0E130A1F4253211F4CC
:1004BC0037D1EBC012E040E000E02D3211F401E046
:1004CC00E5C02B3211F44BE2E1C0203211F440E2D2
:1004DC00DDC002C0E23039F450E013E0203311F4F7
:1004EC000068D4C003C0E33009F0D0C0203310F052
:1004FC002A3308F007C0AAE05A9F502DE22FE05390
:10050C005E0FC4C0E22FE33639F411D113D10FD1F1
:10051C00A481AA9313D1B9C0E33729F415D116D10C
:10052C00DAD01E2F07C0E03749F40ED10FD1DED040
:10053C001E2F086002600F7730E02DC0E43611F0FA
:10054C00E93611F4046002C0E53729F4E4E3F0E085
:10055C0006D115E00BC0E83511F4086003C0E8378C
:10056C0009F093C0EEE3F0E0FAD014E002FF11C002
:10057C00EBD0F8D0AB85AA2332F4EA85FB85FDD00D
:10058C00EA87FB874DE2403011F01F5F01C00B7F03
:10059C0002C0DAD0E7D000FD10C0151770F407FFC9
:1005AC0008C002FF04C00B7F242F115001C020E3B0
:1005BC0001C020E2B5D05150F0CF312F01FF15C052
:1005CC00303091F003FF05C0EE81FF812591C7D03B
:1005DC0005C0AE81BF812D91AE83BF83A1D05030B9
:1005EC0009F051503150ECCF47C020E3EE81FF8130
:1005FC00D5D0E887F987EE81FF813296B0D0E885B7
:10060C00F985AA85BB85AE17BF0750F02F5FA8856B
:10061C00B985EA85FB85EA1BFB0BEA87FB87EFCFE5
:10062C002A3328F003FF02C0295F01C0295D04FDB5
:10063C0019C0213320F4A885B985119709F409C094
:10064C00531710F000FF01C011C020E207FF0AC0D1
:10065C0020E3006102FF06C00B7F4A936FD050303D
:10066C0009F051505DD0503009F051503150A885EF
:10067C00B985129708F0B9CF00FF07C0503029F0A8
:10068C005150E0E2EA935AD0F9CF10E0F9CEAC85A4
:10069C00BD8580D093D064960895FF92F82E26974E
:1006AC008AD0DE01149665D08D01E0E0EC83ED83F9
:1006BC00EE83EF83DE0118965CD06CD025D01A93B4
:1006CC000A93E0E3F2E020D0DE011896CFDE7AD078
:1006DC002896FF90089521D0A991B991EE27FF2774
:1006EC006D91662311F03196FBCF089516D0AA2791
:1006FC00BB27E991F9910590002011F01196FBCFE1
:10070C00FD010895F0E00895FA93EA930895FCDC56
:10071C00F9CF6627772746D00895BA93AA93089500
:10072C002A93AD85BE85EF85F88909950895E889EA
:10073C00F98908953497E88BF98B0895AD85BE85BA
:10074C00EF85F88909950895F2DFF4CFA889B98966
:10075C00149620D0EE83FF83AE81BF810895EE8383
:10076C00FF830895A889B989149614D0EA87FB876A
:10077C0008950024AF0DB01D0895F195E195F0405A
:10078C000895EE0FFF1FEE0FFF1FEE0FFF1FEE0F72
:10079C00FF1F0895ED91FC91119708950590F49128
:1007AC00E02D08957A936A93FA93EA9308955A93F5
:1007BC004A933A932A931A930A9308955D814C8134
:1007CC003B812A8119810881089509911991089515
:00000001FF
