:0400000077C0FECFF8
:10000400FDCFFCCFFBCFFACFF9CFF8CFF7CFF6CFA8
:10001400F5CFF4CFF3CFF2CFF1CFF0CFE4C0EECFF2
:1000240043C1ECCF5DC1ADC0E9CFE8CFE7CFE6CFA8
:100034001027E80364000A0001000010000110000A
:10004400010001000000000000000D0A3E4261733F
:10005400696320426F61726420763120667776325C
:100064002031352F30332F323031360D0A000D0A4E
:1000740065783A2564726825646F4320496E3A2591
:1000840064726825646F430D0A003E3130323A25AC
:1000940030325825303258253032582530325825E0
:1000A40030325825303458253034582530345825CA
:1000B40030345825303258253032582530325821C2
:1000C4003C002573003E3330323A25303258253017
:1000D40034582530325825303258213C0000010074
:1000E400330246000500030048000000F894EE27A0
:1000F400EFBBF1E0F5BFE5BFF8E1A895A4B7A77F92
:10010400A4BFF0936000E09360008DE0A2E0BB2701
:10011400ED938A95E9F780E094E0A0E0B1E0ED93F7
:100124000197E9F7E2EEF0E085919591009761F08F
:10013400A591B59105901590BF01F00105900D9220
:100144000197E1F7FB01F0CFE0E0EEBBEFEFEDBF8D
:10015400E4E0EEBFC0E0D2E0C5C0AA93A881A0331A
:1001640010F0AA3308F003C0E881E053C6C2A881A6
:10017400A03410F0A73408F003C0E881E753BDC2EF
:10018400BCC28A93AA93BA93EA93FA93EFB7EA9319
:10019400E0913202AAE1B2E055D4AE0FBF1FE09164
:1001A4007800F091790052D4A0913202AF5FA0930D
:1001B4003202A33018F0E0E0E0933202E091320220
:1001C400EF5BE0937C0085E38A95F1F7E0917A0098
:1001D400E064E0937A00E991EFBFF991E991B99174
:1001E400A991899118950A921A926A937A938A939B
:1001F4009A93AA93BA93EA93FA93EFB7EA93E091A6
:100204003302A0E2B2E01ED424D4E0911C02F091A7
:100214001D021CD4A0913302AF5FA0933302A93016
:1002240079F5E1E0E0933302A0912202B091230238
:10023400E0912402F09125020CD4E0912602F09181
:10024400270207D4E0912802F091290202D4E09118
:100254002A02F0912B02FDD3E0912C02F0912D02A1
:10026400F8D3E0912E02F0912F02F3D3E091300203
:10027400F0913102F1D35DD6E0932002F093210294
:10028400EED3E1E0F0E03E0E4F1E5E0E6F1EE991EC
:10029400EFBFF991E991B991A991999189917991D6
:1002A4006991199009901895EA93FA93EFB7EA9334
:1002B4001A938090C0001091C600E82DEC7151F49F
:1002C400E72D739400D4EC5CFD4F1083E1E3E71554
:1002D40008F4FBD31991E991EFBFF991E9911895CD
:1002E40045981895E297E0E8E0936100E0E0E09338
:1002F4006100E5B9EFE1E4B9E0E0E8B9E1E2E7B9CA
:10030400E0E0EBB9E0EFEAB9E0E0E0938000E093ED
:100314008100E0938500E0938400E0938700E093FC
:100324008600E0938900E0938800E0938B00E093DB
:100334008A00E093B600E093B000E093B100E0934C
:10034400B200E093B300E093B400E0936900EDBB26
:10035400E0936800E4BDE5E0E5BDE0E0E6BDE7BDAF
:10036400E8BDE1E0E0936E00E0E0E0936F00E0932D
:100374007000E2E0E093C000E8EDE093C100E6E045
:10038400E093C200E0E0E093C500E0E1E093C40044
:10039400E0E8E0BFE0E0E0937B00E0937F00E093DF
:1003A4007E00E1E4E0937C00ECECE0937A00E0E092
:1003B400ECBDE093BC00A8EEB3E01CD47894409A62
:1003C4004ED3A0911602B0911702AE3AE1E0BE07F7
:1003D40014F45E9A01C05E98A0911802B0911902BB
:1003E400A43BE0E0BE0714F45F9A01C05F98A091BB
:1003F4001A02B0911B02A93EE3E0BE0728F0E0E038
:10040400E09313022C9804C0E1E0E09313022C9AC9
:10041400E1E0E0931502E0E0E0931402E1E0E09310
:10042400130259D3459AEEE4F0E05AD380E0D9D2CE
:1004340022964BD3E0E0E71508F003C1A92DBA2DAD
:10044400AC91AE3309F0F1C04ED3A181A133E1F4F4
:100454004AD3A281A033C1F446D3A381A133A1F42A
:1004640042D3A5A1A13281F43ED3A4A13FD3FF93EB
:10047400EF9339D3A3A13AD353D5AF91BF91E9D226
:10048400A536E0E0BE0709F0CFC02DD3A68165DE16
:10049400EF9329D3A5812CD3AF91EA0FE093020205
:1004A40022D3A0855ADEEF931ED3A78121D3AF9127
:1004B400EA0FE093010217D3A2854FDEEF9313D323
:1004C400A18516D3AF91EA0FE09304020CD3A4855F
:1004D40044DEEF9308D3A3850BD3AF91EA0FE093E7
:1004E400050201D3A68539DEEF93FDD2A58500D39D
:1004F400AF91EA0FE0930602F6D2A089F7D2FF93F8
:10050400EF93F1D2A785F2D20BD5AF91BF91A4D2CC
:10051400F3D2FF93EF93E7D2A289E8D2AF91BF91D0
:10052400EED2FF93EF93DFD2A189ECD2AF91BF91CA
:10053400E6D2E0931102F0931202D5D2A489D6D266
:10054400FF93EF93D0D2A389D1D2EAD4AF91BF91D4
:1005540083D2D2D2FF93EF93C6D2A689C7D2AF91EA
:10056400BF91CDD2FF93EF93BED2A589CBD2AF91E9
:10057400BF91C5D2E0930F02F0931002B4D2A08DC4
:10058400B5D2FF93EF93AFD2A789B0D2C9D4AF91BC
:10059400BF9162D2B1D2FF93EF93A5D2A28DA6D21E
:1005A400AF91BF91ACD2FF93EF939DD2A18DAAD20C
:1005B400AF91BF91A4D2E0930D02F0930E0293D2B7
:1005C400A48D94D2FF93EF938ED2A38D8FD2A8D40F
:1005D400AF91BF9141D290D2FF93EF9384D2A68D75
:1005E40085D2AF91BF918BD2FF93EF937CD2A58D2F
:1005F40089D2AF91BF9183D2E0930B02F0930C02A6
:10060400459AE2E7F0E06CD282D280E1EAD16296C8
:1006140010E0123340F4E12F56D2EC5CFD4FA0E021
:10062400A0831F5FF6CF51D20CC0E6E6F2E09E161F
:10063400AF0630F458D231969E2EAF2E319701C0BA
:100644004AD2E8E9F8E0E315F40574F5FE0148D26E
:10065400EEE8F0E045D2E091020272D2E0910102AC
:100664006FD2E09104026CD2E091050269D2E0916C
:10067400060266D24CD2E091150225D255D4DF0190
:10068400E0911402DFD1E5D1E09113021CD237D2FC
:100694005CD2ECE3F0E060E070E05AD280E37BD11E
:1006A400E4965DD233244424E0EBF4E0E515F6054A
:1006B400D4F4FE0115D2E9ECF0E012D2E091180274
:1006C400F091190242D2E0911602F09117023DD244
:1006D400EDE3F0E060E070E03BD280E15CD1649651
:1006E4003ED255246624A6CEFFCFAA93E091C00043
:1006F400E072E1F3E881E093C600219608953CD2CC
:10070400AA81F3DFA881B9813AD22396089534D21D
:100714002DD43BD2129619D43097F1F036D238D278
:100724008F01309761F00230E0E01E07A0F0F8017D
:1007340031978F01AA81BB811496ED93FC9325D246
:1007440012961DD23197AC81A0831FD2FED3FF2312
:1007540012F01BD214D204C018D2EFEFFFEF76D1FF
:100764000CD42596089508D22697FCD310E0AC85C6
:10077400BD85E0E0F0E06AD1EA89FB893196EA8B35
:10078400FB8B3197E4912E2FE03009F4FEC0E12F6A
:10079400E03031F4253211F411E001C0FCD1F4C091
:1007A400E130A1F4253211F4F6D1EDC012E040E0BD
:1007B40000E02D3211F401E0E7C02B3211F44BE2DA
:1007C400E3C0203211F440E2DFC002C0E23039F469
:1007D40050E013E0203311F40068D6C003C0E330C6
:1007E40009F0D2C0203310F02A3308F007C0AAE081
:1007F4005A9F502DE22FE0535E0FC6C0E22FE3361E
:1008040039F4D0D1D2D1CED1A481AA93D2D1BBC054
:10081400E33731F4D4D1D5D1D7D1FDD01E2F08C0C0
:10082400E03751F4CCD1CDD1CFD100D11E2F086007
:1008340002600F7730E02EC0E43611F0E93611F48F
:10084400046002C0E53729F4E4E3F0E0C2D115E026
:100854000BC0E83511F4086003C0E83709F093C011
:10086400EEE3F0E0B6D114E002FF11C0A8D1A9D1A3
:10087400B3D1AB85AA232AF4EA85FB8545D3ACD151
:100884004DE2403011F01F5F01C00B7F03C097D1D0
:1008940098D1A2D100FD10C0151770F407FF08C04D
:1008A40002FF04C00B7F242F115001C020E301C0BC
:1008B40020E271D15150F0CF312F01FF15C03030FB
:1008C40091F003FF05C0EE81FF81259182D105C01F
:1008D400AE81BF812D91AE83BF835DD1503009F0CD
:1008E40051503150ECCF46C020E3EE81FF8131D32B
:1008F400E887F987EE81FF8132966BD1E885F98527
:10090400AA85BB85AE17BF0748F02F5FA885B985B8
:10091400EA85FB85EA1BFB0B5FD1F0CF2A3328F075
:1009240003FF02C0295F01C0295D04FD19C0213302
:1009340020F4A885B985119709F409C0531710F05C
:1009440000FF01C011C020E207FF0AC020E30061DC
:1009540002FF06C00B7F4A932CD1503009F051504E
:100964001AD1503009F051503150A885B9851297E9
:1009740008F0BACF00FF07C0503029F05150E0E230
:10098400EA9317D1F9CF10E0F7CEAC85BD85DDD25F
:10099400F0D264960895FF92F82E2697E5D21FD1DF
:1009A400309719F4EFEFFFEF18C0DE011696A8D2C6
:1009B4008D0115D10ED1E0E0E887E987DE011A96B2
:1009C40013D1E9E8F3E08CD0DE011A96CCDE9F0166
:1009D400AE81BF81E0E0EC93F901CDD22A96FF907D
:1009E4000895FF92F82E2697C1D2DE01149688D27C
:1009F4008D01E0E0EC83ED83EE83EF83DE01189656
:100A0400F3D0E1E8F3E06CD0DE011896ACDEB5D2A9
:100A14002896FF900895B0D0A991B991EE27FF27A9
:100A24006D91662311F03196FBCF0895A5D0AA27C6
:100A3400BB27E991F9910590002011F01196FBCFA5
:100A4400FD010895F0E0EE0FFF1F0895ED93FC9370
:100A54000895AE0FBF1F0895FCDFFD010895E091D6
:100A64001E02F0911F026627772734D1A5EFB9EB58
:100A74008AE49FE3B2D1ADECBCEC8CE090E45DD1B0
:100A8400F2D0E0931602F0931702E0912002F09165
:100A94002102662777271ED1DF01CB01E2E1F3E0D3
:100AA4006EE072E4E8D1ADECBCEC8CE49EE345D19D
:100AB400A6EABBE982E491E490D1D5D0E093180290
:100AC400F09319020895F0E008957724E4E3F2E046
:100AD4009E2EAF2E0895E4E3F2E09E2EAF2E0895ED
:100AE400FA93EA930895E92DFA2D089536DBEBCFB6
:100AF40034DBE295E07F0895FE2FE0E00895EA0FED
:100B0400FB1F08952ADBA0E1EA9FF0010895E0911C
:100B14001102F091120214D220D2E0910F02F0914E
:100B240010020ED21AD2E0910D02F0910E0208D2F8
:100B340014D2E0910B02F0910C0202D20ED208956D
:100B4400FF276627772709D20895FAD106D2089598
:100B540004D2E6E6F0E060E070E0FFD10895459A43
:100B6400E6ECF0E0BDDFFE01329666277727F5D18B
:100B740084E037DF26960895BA93AA930895ED91F9
:100B8400FD913196FE93EE930895AA81BB81089559
:100B94001496DBD108952A93AD85BE85EF85F88937
:100BA40009950895E889F98908953497E88BF98BB4
:100BB4000895AD85BE85EF85F88909950895F2DF1E
:100BC400F4CFA889B989E4CFEE83FF83AE81BF81D6
:100BD4000895EE83FF830895EA87FB870895DE0175
:100BE4001C968ED1B2D108958BD1AFD179DF1A93EF
:100BF4000A930895109639F080EA9FE00197F1F77F
:100C0400A8951197C9F70895552342F4503811F463
:100C1400E0FF04C03196691F791F6BF050E8572735
:100C240011F45F93C8C05F3F31F0660F000C579515
:100C34006795752F08955F9300200AF0C8C0C1C05E
:100C440050E8192E1522880F991F9527550F87955F
:100C540050E8072E0522660F771F7527550F6795F5
:100C64000895689401C0E8945F93F2DF703818F037
:100C74007F3F08F4A0C056E1571BAAF451955830A1
:100C84000EF4593030F0EFEFFFEF6FEF7FE777F9B5
:100C94001AC077275523B9F0EE0FFF1F661F771F81
:100CA4005A95D1F710C07727583028F0EF2FF62F38
:100CB400672F5850F9CF552331F076956795F795FE
:100CC400E7955A95D1F700200AF422D15F9108954F
:100CD400689401C0E894309760407040B1F00024FB
:100CE40026F0772312F4009413D1172E7EE11120FD
:100CF40032F07A95EE0FFF1F661F111CF9CFEF2F0C
:100D0400F62F612D5F938ADF5F9108954F93AF01B2
:100D1400FD01DA01AB01BC01CA01402D012C142EE6
:100D24004F910895EA0FFB1F681F0895E095F09511
:100D34006095EF5FFF4F6F4F08955F9381DF9038A9
:100D440039F1703821F1572F591B2BF112F4DEDFE2
:100D5400FACF583118F0AA27BB278827583028F033
:100D6400AB2FB82F88275850F9CF552329F08695F3
:100D7400B795A7955A95D9F7502D512572F0D2DF22
:100D840038F46795F795E795739513F420C0BEDFA3
:100D940045DF5F910895D8F7FBCFEA1BFB0B680B87
:100DA40051F010F40094C2DF662392F3EE0FFF1F9C
:100DB400661F7A95CBF7EE27FF27662777275F9183
:100DC4000895EFEFFFEF6FE77FEF5F910895EFEF87
:100DD400FFEF6FE77FE75F9108955F9331DF70382E
:100DE40051F3903841F301240894791F23F41CF340
:100DF40000203AF3ECCF0F921F932F933F934F931E
:100E0400112722279927689FA0018F9F302D410D1C
:100E1400591F6B9F300D411D591F8E9F27D0BF9FB7
:100E240025D06A9F23D0BE9F1DD0AF9F1BD0AE9FFD
:100E3400110D291F391F491F591FE32FF42F652F47
:100E4400522F4F913F912F911F910F9066232AF0BB
:100E5400550FEE1FFF1F661F02C073954BF2D4DEC1
:100E64005F910895100D211D391F02C0200D311D01
:100E7400491F591F08955F93E3DE703821F4112050
:100E84000AF49FCFA4CF903809F495CF0124089495
:100E9400970B1BF4D4F30020F3CF792F1F932F93D8
:100EA4003F934F9311241127222733274427552793
:100EB40090E2AE17BF078607410730F0AE1BBF0BA9
:100EC400860B410B089401C08894551F221F331FC1
:100ED400111CAA1FBB1F881F441F9A9551F7F901C3
:100EE400612D4F913F912F911F91662332F0550F41
:100EF400EE1FFF1F661F7A9543F286DE5F91089509
:100F04000024AF0DB01D0895F195E195F0400895CA
:100F1400F09560957095E195FF4F6F4F7F4F089561
:100F2400EE0FFF1FEE0FFF1FEE0FFF1FEE0FFF1F51
:100F34000895F695E795F695E795F695E79508955E
:100F44006F2F660F660B762F0895ED91FC91119724
:100F540008950590F491E02D08957A936A93FA9395
:100F6400EA9308955A934A933A932A931A930A93C5
:100F740008955D814C813B812A81198108810895FE
:00000001FF
