:0C00000032C0FECFFDCFFCCFFBCFFACF0B
:10000C00F9CFF8CFF7CFF6CFF5CFF4CFF3CFF2CFC0
:10001C00F1CFF0CFEFCFEECF57C0ECCF67C0EACF28
:10002C00E9CFE8CFE7CFE6CF1027E80364000A005A
:10003C000100001000011000010000004D6169205A
:10004C004C616E20616E2053686974205E5E0D0AEF
:10005C0000000100040046000000F894EE27EFBBFE
:10006C00F1E0F5BFE5BFF8E1A895A4B7A77FA4BF61
:10007C00F0936000E09360008DE0A2E0BB27ED936D
:10008C008A95E9F780E094E0A0E0B1E0ED93019768
:10009C00E9F7EEE5F0E085919591009761F0A59177
:1000AC00B59105901590BF01F00105900D92019747
:1000BC00E1F7FB01F0CFE0E0EEBBEFEFEDBFE4E0EA
:1000CC00EEBFC0E0D2E014C0EA93EFB7EA932BD2B4
:1000DC001091C0000091C600E12FEC7111F4E1E029
:1000EC004E2E2BD2E991EFBFE991189545981895B2
:1000FC00E0E8E0936100E0E0E0936100E5B9E4B989
:10010C00E8B9E7B93D9AEBB9EAB9E4BDE5BDE6BD9E
:10011C00E7BDE8BDE0938000E0938100E0938500AB
:10012C00E0938400E0938700E0938600E0938900DD
:10013C00E0938800E0938B00E0938A00E093B60094
:10014C00E093B000E093B100E093B200E093B30011
:10015C00E093B400E0936900EDBBE0936800E0939A
:10016C006E00E0936F00E0937000E093C000E8ED48
:10017C00E093C100E6E0E093C200E0E0E093C5004C
:10018C00E8E0E093C400E0E8E0BFE0E0E0937B004F
:10019C00E0937F00E0937A00ECBDE093BC00789490
:1001AC00E1E0E41581F43090C00037FCFECFAAE00A
:1001BC00B0E09BD1459AE8E4F0E0FA93EA9380E052
:1001CC0031D122964424ECCFFFCFAA93E091C0000A
:1001DC00E072E1F3E881E093C6002196089559D1CD
:1001EC00AA81F3DFA881B981ED91FD913196FE933F
:1001FC00EE93239608954DD1269791D110E0AC85BE
:10020C00BD85E0E0F0E0ED93FC93EA89FB89319643
:10021C00EA8BFB8B3197E4912E2FE03009F4FCC074
:10022C00E12FE03031F4253211F411E001C034D16A
:10023C00F2C0E130A1F4253211F42ED1EBC012E062
:10024C0040E000E02D3211F401E0E5C02B3211F456
:10025C004BE2E1C0203211F440E2DDC002C0E230DA
:10026C0039F450E013E0203311F40068D4C003C01B
:10027C00E33009F0D0C0203310F02A3308F007C067
:10028C00AAE05A9F502DE22FE0535E0FC4C0E22F1C
:10029C00E33639F408D10AD106D1A481AA930AD144
:1002AC00B9C0E33729F40CD10DD1DCD01E2F07C017
:1002BC00E03749F405D106D1E0D01E2F086002606A
:1002CC000F7730E02DC0E43611F0E93611F40460FC
:1002DC0002C0E53729F4E4E3F0E0FDD015E00BC0F3
:1002EC00E83511F4086003C0E83709F093C0EEE379
:1002FC00F0E0F1D014E002FF11C0E2D0EFD0AB85FA
:10030C00AA2332F4EA85FB85FED0EA87FB874DE20F
:10031C00403011F01F5F01C00B7F02C0D1D0DED086
:10032C0000FD10C0151770F407FF08C002FF04C0D1
:10033C000B7F242F115001C020E301C020E2ACD070
:10034C005150F0CF312F01FF15C0303091F003FF29
:10035C0005C0EE81FF812591BED005C0AE81BF8165
:10036C002D91AE83BF8398D0503009F0515031504D
:10037C00ECCF47C020E3EE81FF81CDD0E887F98731
:10038C00EE81FF813296A7D0E885F985AA85BB85D9
:10039C00AE17BF0750F02F5FA885B985EA85FB859E
:1003AC00EA1BFB0BEA87FB87EFCF2A3328F003FF0E
:1003BC0002C0295F01C0295D04FD19C0213320F45E
:1003CC00A885B985119709F409C0531710F000FFDF
:1003DC0001C011C020E207FF0AC020E3006102FF48
:1003EC0006C00B7F4A9366D0503009F0515054D060
:1003FC00503009F051503150A885B985129708F04A
:10040C00B9CF00FF07C0503029F05150E0E2EA9319
:10041C0051D0F9CF10E0F9CEAC85BD8578D086D01F
:10042C0064960895FF92F82E26977DD0DE011496DF
:10043C0066D08D01E0E0EC83ED83EE83EF83DE018B
:10044C0018965DD064D0FA93EA931A930A93E5EF69
:10045C00F0E0FA93EA93DE011896CDDE6BD0289685
:10046C00FF90089516D0A991B991EE27FF276D91B1
:10047C00662311F03196FBCF08950BD0AA27BB272A
:10048C00E991F9910590002011F01196FBCFFD0137
:10049C000895BA93AA9308952A93AD85BE85EF85E6
:1004AC00F88909950895E889F98908953497E88BB6
:1004BC00F98B0895AD85BE85EF85F889099508956A
:1004CC00F2DFF4CFA889B989149621D0EE83FF838B
:1004DC00AE81BF810895EE83FF830895A889B98901
:1004EC00149615D0EA87FB870895109639F080EAA8
:1004FC009FE00197F1F7A8951197C9F7089500248B
:10050C00AF0DB01D0895F195E195F0400895ED9172
:10051C00FC91119708950590F491E02D08955A934C
:10052C004A933A932A931A930A9308955D814C81C6
:10053C003B812A81198108810895099119910895A7
:00000001FF
