:0E0000004EC0FECFFDCFFCCFFBCFFACFF9CF25
:10000E00F8CFF7CFF6CFF5CFF4CFF3CFF2CFF1CFC6
:10001E00F0CFEBC0EECF03C1ECCF27C128C1E9CFA3
:10002E00E8CFE7CFE6CF1027E80364000A0001000F
:10003E00001000011000010000200024000000004C
:10004E00000000000D0A3E46414E20556E69742098
:10005E00763120667776312031382F30342F32309A
:10006E0031360D0A003E46414E253032582530328B
:10007E0058253032583C25303458253034582530E8
:10008E0034582530345800000C00030046000000A0
:10009E00F894EE27EFBBF1E0F5BFE5BF8DE0A2E0EF
:1000AE00BB27ED938A95E9F780E094E0A0E0B1E0FC
:1000BE00ED930197E9F7E6E9F0E0859195910097C8
:1000CE0061F0A591B59105901590BF01F0010590D5
:1000DE000D920197E1F7FB01F0CFE0E0EEBBEFEF01
:1000EE00EDBFE4E0EEBFC0E0D2E0F6C0AA93A88177
:1000FE00A03310F0AA3308F003C0E881E0539BC18F
:10010E00A881A03410F0A73408F003C0E881E753AB
:10011E0092C191C1E0E8E0936100E0E0E0936100FC
:10012E00E7E0E4B9E0E0E5B9E0E2E7B9E0E0E8B93C
:10013E00E0E8EAB9E0E0EBB9E4BDE2E0E5BDE8E312
:10014E00E6BDE0E0E7BDE8BDE0938000E09381000E
:10015E00E0938500E0938400E0938700E0938600AF
:10016E00E0938900E0938800E0938B00E0938A008F
:10017E00E093B600E093B000E093B100E093B200DC
:10018E00E093B300E093B400E1E0E0936E00E0E0B2
:10019E00E0936F00E0937000E0936900EDBBE09395
:1001AE006800E2E0E093C000E8EDE093C100E6E015
:1001BE00E093C200E0E0E093C500E0E1E093C4000C
:1001CE00E0E8E0BFE0E0E0937F00EFE3E0937E0045
:1001DE00E0E4E0937C00ECECE0937A00E0E0E09366
:1001EE007B00ECBDE093BC0008950A92EA93FA936B
:1001FE00EFB7EA93E8E3E6BDE1E0E71551F4EB2D46
:10020E00FC2D3197BE2ECF2E0B2C0C2811F4E1E0D5
:10021E005E2EE991EFBFF991E99109901895EA9355
:10022E00FA93EFB7EA930AD31091C0000091C6007B
:10023E00E4EFF1E05AD2E12FEC7181F4E92D9394C1
:10024E00F0E0E050FE4F0083E2E3E91509F4992453
:10025E00E394E2E3EE1511F4EE24F09A099119916C
:10026E00E991EFBFF991E9911895459818958A9300
:10027E00AA93BA93EA93FA93EFB7EA93E0913E0208
:10028E00A6E3B2E0F0E0EE0FFF1FAE0FBF1FE0914E
:10029E007800F0917900ED93FC93A0913E02AF5F50
:1002AE00A0933E02A43018F0E0E0E0933E02E0910D
:1002BE003E02E05CE0937C0085E38A95F1F7E091E5
:1002CE007A00E064E0937A00E991EFBFF991E99149
:1002DE00B991A991899118951DDF7894459AE2E517
:1002EE00F0E009D280E0CCD122963C98449AE8E81E
:1002FE00F3E1FBD1E1E0AE2EE1E0E51519F4552472
:10030E007724AE2EE1E0EA1509F060C0A09100025C
:10031E00AE3391F5A0910102A33471F5A0910202C2
:10032E00A03551F5A0910302A53531F5A0910A0231
:10033E00AC3311F5A0910502E1D1FF93EF93A0919B
:10034E000402DCD15AD2AF91BF91AE0FBF1FE42D84
:10035E00F0E0D7D189F4A0910902D0D1FF93EF93A9
:10036E00A0910802CBD149D2AF91BF91AE0FBF1F62
:10037E00E62DF0E0C6D109F01BC0A0910702BED158
:10038E00FF93EF93A0910602B9D137D2AF91BF91EF
:10039E00EA0FFB1FB9D1BDD1C1D141F0A0913202FC
:1003AE00B0913302509721F4BED1AED1459AC0D14F
:1003BE00AA248824E2E38E1640F4E82DF0E0E05003
:1003CE00FE4FA0E0A0838394F5CF9924A2D1EF70C5
:1003DE00F070A4D131F19DD1EF70F070E093340242
:1003EE00F0933502E0913402E17011F4299801C0C6
:1003FE00299A99D1F695E795E17011F42A9801C0E2
:10040E002A9A91D105D2E17011F45F9801C05F9ADA
:10041E008AD1FCD1E17011F4289801C0289A459A2E
:10042E0087D16ACFFFCFAA93E091C000E072E1F3CB
:10043E00E881E093C60021960895ABD1AA81F3DF3F
:10044E00A881B981ED91FD913196FE93EE9323969D
:10045E0008959FD12697EED110E0AC85BD85E0E0E2
:10046E00F0E0ED93FC93EA89FB893196EA8BFB8BE6
:10047E003197E4912E2FE03009F4FCC0E12FE030EB
:10048E0031F4253211F411E001C086D1F2C0E13011
:10049E00A1F4253211F480D1EBC012E040E000E06F
:1004AE002D3211F401E0E5C02B3211F44BE2E1C024
:1004BE00203211F440E2DDC002C0E23039F450E0E7
:1004CE0013E0203311F40068D4C003C0E33009F008
:1004DE00D0C0203310F02A3308F007C0AAE05A9F8C
:1004EE00502DE22FE0535E0FC4C0E22FE33639F4F5
:1004FE005AD15CD158D1A481AA935CD1B9C0E3374B
:10050E0029F45ED15FD1DAD01E2F07C0E03749F44F
:10051E0057D158D1DED01E2F086002600F7730E021
:10052E002DC0E43611F0E93611F4046002C0E5374F
:10053E0029F4E4E3F0E04FD115E00BC0E83511F4F7
:10054E00086003C0E83709F093C0EEE3F0E043D152
:10055E0014E002FF11C034D141D1AB85AA2332F48D
:10056E00EA85FB8546D1EA87FB874DE2403011F0E4
:10057E001F5F01C00B7F02C023D130D100FD10C020
:10058E00151770F407FF08C002FF04C00B7F242F5D
:10059E00115001C020E301C020E2FED05150F0CF37
:1005AE00312F01FF15C0303091F003FF05C0EE81F1
:1005BE00FF81259110D105C0AE81BF812D91AE83F3
:1005CE00BF83EAD0503009F051503150ECCF47C0C4
:1005DE0020E3EE81FF8125D1E887F987EE81FF8147
:1005EE003296F9D0E885F985AA85BB85AE17BF0787
:1005FE0050F02F5FA885B985EA85FB85EA1BFB0BBA
:10060E00EA87FB87EFCF2A3328F003FF02C0295F6A
:10061E0001C0295D04FD19C0213320F4A885B985D8
:10062E00119709F409C0531710F000FF01C011C053
:10063E0020E207FF0AC020E3006102FF06C00B7F25
:10064E004A93B8D0503009F05150A6D0503009F02E
:10065E0051503150A885B985129708F0B9CF00FFD7
:10066E0007C0503029F05150E0E2EA93A3D0F9CF01
:10067E0010E0F9CEAC85BD85D0D0E3D06496089558
:10068E00FF92F82E2697DAD0DE011496AED08D01A9
:10069E00E0E0EC83ED83EE83EF83DE011896A5D0C8
:1006AE00BCD029D01A930A93E4E2F2E024D0DE0102
:1006BE001896CFDECAD02896FF9008956AD0A991D9
:1006CE00B991EE27FF276D91662311F03196FBCF7E
:1006DE0008955FD0AA27BB27E991F99105900020D4
:1006EE0011F01196FBCFFD010895BE2ECF2E55248D
:1006FE00E1E07E2E0895FA93EA930895F7DCF0E098
:10070E000895EA17FB070895E0933202F09333023F
:10071E000895E0913202F09133020895A0913402CF
:10072E00B0913502EECFE0913402F091350208958A
:10073E00E3E7F0E0E0DFE32DFF276627772775D0AC
:10074E00F2DF6627772771D0E62DFF2766277727FA
:10075E006CD0E0913602F09137026627772765D08C
:10076E00E0913802F0913902662777275ED0E0914A
:10077E003A02F0913B026627772757D0E0913C0270
:10078E00F0913D026627772750D08CE179DF6E9687
:10079E000895BA93AA9308952A93AD85BE85EF85E1
:1007AE00F88909950895E889F98908953497E88BB1
:1007BE00F98B0895AD85BE85EF85F8890995089565
:1007CE00F2DFF4CFA889B989149627D0EE83FF8380
:1007DE00AE81BF810895EE83FF830895A889B989FC
:1007EE0014961BD0EA87FB8708950024AF0DB01D29
:1007FE000895F195E195F0400895EE0FFF1FEE0F6D
:10080E00FF1FEE0FFF1FEE0FFF1F0895F695E795E2
:10081E00F695E795F695E7950895ED91FC9111976C
:10082E0008950590F491E02D08957A936A93FA93C2
:10083E00EA9308955A934A933A932A931A930A93F2
:10084E0008955D814C813B812A811981088108952B
:00000001FF
