:0A0000003EC0FECFFDCFFCCFFBCFCA
:10000A00FACFF9CFF8CFF7CFF6CFF5CFF4CFF3CFBA
:10001A00F2CFF1CFF0CF65C0EECF69C0ECCFEBCF16
:10002A00EACFE9CFE8CFE7CFE6CF1027E8036400AD
:10003A000A00010000100001100001000000000089
:10004A000D0A3E41495220426F6172642076312086
:10005A00667776312032362F30322F323031360DF4
:10006A000A003E4149523A2564213C00040003003B
:10007A0046000000F894EE27EFBBF1E0F5BFE5BFBC
:10008A00F8E1A895A4B7A77FA4BFF0936000E09316
:10009A0060008DE0A2E0BB27ED938A95E9F780E046
:1000AA0094E0A0E0B1E0ED930197E9F7E6E7F0E02C
:1000BA0085919591009761F0A591B591059015905C
:1000CA00BF01F00105900D920197E1F7FB01F0CF16
:1000DA00E0E0EEBBEFEFEDBFE4E0EEBFC0E0D2E060
:1000EA0022C096D2E1E0F0E05E0E6F1E17C090D2F9
:1000FA0002D31091C0000091C600E12FEC7169F49F
:10010A00332009F48AD2E32D33948CD2E050FE4F87
:10011A000083E1E3E31509F43324F7D2E991EFBF51
:10012A00F991E9911895E0E8E0936100E0E0E09345
:10013A006100E5B9E4B9E8B9E6E2E7B9E0E0EBB9AC
:10014A00E8E1EAB9E0E0E0938000E0938100E0931F
:10015A008500E0938400E0938700E0938600E093B3
:10016A008900E0938800E0938B00E0938A00E09393
:10017A00B600E093B000E093B100E093B200E093E0
:10018A00B300E093B400E0936900EDBBE09368002C
:10019A00E4BDE5E0E5BDE0E0E6BDE7BDE8BDE1E0E0
:1001AA00E0936E00E0E0E0936F00E0937000E2E01D
:1001BA00E093C000E8E9E093C100E6E0E093C20002
:1001CA00E0E0E093C500E0E1E093C400E0E8E0BFCE
:1001DA00E0E0E0937B00E0937F00E0937A00ECBDDF
:1001EA00E093BC007894A8EEB3E062D2459AEAE4C0
:1001FA00F0E01AD280E0D7D1229645985C9A5B9AB1
:10020A00A8EEB3E055D25C985B9807D2E0E0E3151C
:10021A0008F06FC00CD2A1F40FD2A181AD3481F4E1
:10022A000BD2A281A23461F407D2A381A33541F48F
:10023A0003D2A489A13221F4FFD1A289AE3209F0F6
:10024A002CC0FAD1B581FBD1E781FBD1E0933D0205
:10025A00F0933E02F1D1B185F2D1E385F2D1E09378
:10026A003F02F0934002E8D1B585E9D1E785E9D1AB
:10027A00E0934102F0934202DFD1B189E0D1E389F0
:10028A00E0D1E0934302F093440210E0153118F4F0
:10029A00DCD11F5FFBCF33242CC0C9D1A1F4CCD150
:1002AA00A181AD3481F4C8D1A281A23461F4C4D150
:1002BA00A381A33441F4C0D1A481A13421F4BCD1D7
:1002CA00A789A13209F011C0B7D14084E0E0E41552
:1002DA0020F4E8E0F7E05E2E6F2E10E0153118F4F6
:1002EA00B4D11F5FFBCF332404C0E1E0F0E07E0EFF
:1002FA008F1EE8E0F7E0E515F60534F5E0E0E415D1
:10030A0008F540FC02C05C9801C05C9A41FC02C03E
:10031A005B9801C05B9A4424459AECE6F0E084D1EC
:10032A00E0E05C99E1E00E2EA0E05B99A1E0EA2F03
:10033A00EE0FE00DFF2766277727D4D184E033D16B
:10034A00269645985524662461CFFFCFAA93E0915B
:10035A00C000E072E1F3E881E093C60021960895B7
:10036A007BD1AA81F3DFA881B981ED91FD91319604
:10037A00FE93EE93239608956FD12697B8D110E095
:10038A00AC85BD85E0E0F0E0ED93FC93EA89FB895A
:10039A003196EA8BFB8B3197E4912E2FE03009F4EA
:1003AA00FCC0E12FE03031F4253211F411E001C034
:1003BA0056D1F2C0E130A1F4253211F450D1EBC08C
:1003CA0012E040E000E02D3211F401E0E5C02B32EA
:1003DA0011F44BE2E1C0203211F440E2DDC002C068
:1003EA00E23039F450E013E0203311F40068D4C04D
:1003FA0003C0E33009F0D0C0203310F02A3308F0EC
:10040A0007C0AAE05A9F502DE22FE0535E0FC4C0E6
:10041A00E22FE33639F42AD12CD128D1A481AA9328
:10042A002CD1B9C0E33729F42ED12FD1DAD01E2F1F
:10043A0007C0E03749F427D128D1DED01E2F086043
:10044A0002600F7730E02DC0E43611F0E93611F47E
:10045A00046002C0E53729F4E4E3F0E01FD115E0B7
:10046A000BC0E83511F4086003C0E83709F093C0FF
:10047A00EEE3F0E013D114E002FF11C004D111D170
:10048A00AB85AA2332F4EA85FB8520D1EA87FB876C
:10049A004DE2403011F01F5F01C00B7F02C0F3D064
:1004AA0000D100FD10C0151770F407FF08C002FF45
:1004BA0004C00B7F242F115001C020E301C020E2A9
:1004CA00CED05150F0CF312F01FF15C0303091F00E
:1004DA0003FF05C0EE81FF812591E0D005C0AE8102
:1004EA00BF812D91AE83BF83BAD0503009F05150ED
:1004FA003150ECCF47C020E3EE81FF81EFD0E8878F
:10050A00F987EE81FF813296C9D0E885F985AA85F7
:10051A00BB85AE17BF0750F02F5FA885B985EA855E
:10052A00FB85EA1BFB0BEA87FB87EFCF2A3328F010
:10053A0003FF02C0295F01C0295D04FD19C02133F0
:10054A0020F4A885B985119709F409C0531710F04A
:10055A0000FF01C011C020E207FF0AC020E30061CA
:10056A0002FF06C00B7F4A9388D0503009F05150E1
:10057A0076D0503009F051503150A885B98512977C
:10058A0008F0B9CF00FF07C0503029F05150E0E21F
:10059A00EA9373D0F9CF10E0F9CEAC85BD859AD035
:1005AA00ADD064960895FF92F82E2697A4D0DE0166
:1005BA00149688D08D01E0E0EC83ED83EE83EF831F
:1005CA00DE0118967FD086D02FD01A930A93E5EBD6
:1005DA00F1E02AD0DE011896CFDE94D02896FF905B
:1005EA0008953AD0A991B991EE27FF276D91662314
:1005FA0011F03196FBCF08952FD0AA27BB27E99196
:10060A00F9910590002011F01196FBCFFD01089594
:10061A00EA93FA93EFB7EA930895E0E0F2E07E2EC8
:10062A008F2E0895F0E00895FA93EA930895A72D7E
:10063A00B82DAC91AE330895E72DF82D0895A0E0BA
:10064A00FBCFF0DFEA0FFB1F0895E12FEBDFE0504D
:10065A00FE4FA0E0A0830895BA93AA9308952A931F
:10066A00AD85BE85EF85F88909950895E889F989E8
:10067A0008953497E88BF98B0895AD85BE85EF858B
:10068A00F88909950895F2DFF4CFA889B9891496F3
:10069A0021D0EE83FF83AE81BF810895EE83FF836D
:1006AA000895A889B989149615D0EA87FB87089511
:1006BA00109639F080EA9FE00197F1F7A895119713
:1006CA00C9F708950024AF0DB01D0895F195E1957D
:1006DA00F0400895ED91FC91119708950590F491D9
:1006EA00E02D08957A936A93FA93EA9308955A93B8
:1006FA004A933A932A931A930A9308955D814C81F7
:10070A003B812A81198108810895099119910895D7
:00000001FF
