:0800000037C0FECFFDCFFCCF9D
:10000800FBCFFACFF9CFF8CFF7CFF6CFF5CFF4CFB4
:10001800F3CFF2CFF1CFF0CFEFCFEECF5CC0ECCF84
:10002800EBCFEACFE9CFE8CFE7CFE6CF1027E80359
:1000380064000A0001000010000110000100000027
:10004800000000003E494F20426F61726420763103
:1000580020667776320D0A003E256325630D0A0077
:100068000600030046000000F894EE27EFBBF1E01D
:10007800F5BFE5BFF8E1A895A4B7A77FA4BFF093A3
:100088006000E09360008DE0A2E0BB27ED938A95C5
:10009800E9F780E094E0A0E0B1E0ED930197E9F79B
:1000A800E8E6F0E085919591009761F0A591B5910A
:1000B80005901590BF01F00105900D920197E1F7A9
:1000C800FB01F0CFE0E0EEBBEFEFEDBFE4E0EEBF09
:1000D800C0E0D2E029C0EA93FA93EFB7EA933BD3A2
:1000E8001091C0000091C600E12FEC71B9F4E1E075
:1000F800E61511F40A3009F002C0E1E03E2E0E3395
:1001080011F4E1E06E2EE1E0E61541F4E42D4394AC
:1001180046D20083E7E0E41509F4442426D3E991A4
:10012800EFBFF991E9911895E0E8E0936100E0E00C
:10013800E0936100E5B9E0E2E4B9E0E0E8B9EFE3B3
:10014800E7B9E0E0EBB9ECE0EAB9E0E0E4BDE5BD31
:10015800E6BDE7BDE8BDE0938000E0938100E09351
:100168008500E0938400E0938700E0938600E093A5
:100178008900E0938800E0938B00E0938A00E09385
:10018800B600E093B000E093B100E093B200E093D2
:10019800B300E093B400E0936900EDBBE09368001E
:1001A800E0936E00E0936F00E0937000E093C0006E
:1001B800E8E9E093C100E6E0E093C200E0E0E09304
:1001C800C500E0E4E093C400E0E8E0BFE0E0E093CD
:1001D8007B00E0937F00E0937A00ECBDE093BC00E5
:1001E80078945B9AA8EEB3E093D2ECE4F0E0DBD12C
:1001F80080E0A0D12296DAD15E2EA4E6B0E088D2C3
:1002080010D213D217D251D2332009F459C02D9AE3
:10021800A0910002AE3321F4A0910102A33709F0A6
:1002280001C039C0A0910002AE3321F4A0910102AF
:10023800A23709F037C03DD2E07811F45B9801C0CD
:100248005B9A37D2E07411F45A9801C05A9A31D2A5
:10025800E07211F4459801C0459A2BD2E07111F46F
:10026800449801C0449A25D2E87011F4439801C01B
:10027800439A1FD2E47011F4429801C0429A19D2ED
:10028800E27011F4419801C0419A13D2E17011F45F
:10029800409801C0409AE0E6F0E085D187D1C5D109
:1002A800C9D103D24424E7E04E1630F4E42D77D1C7
:1002B800A0E0A0834394F7CF4424332466242D98E8
:1002C80075D18E2E581439F02D9AABD1AED1B2D14A
:1002D800ECD1582C2D9898CFFFCFAA93E091C0006D
:1002E800E072E1F3E881E093C60021960895E4D135
:1002F800AA81F3DFA881B981ED91FD913196FE9332
:10030800EE9323960895D8D1269721D210E0AC8594
:10031800BD85E0E0F0E0ED93FC93EA89FB89319636
:10032800EA8BFB8B3197E4912E2FE03009F4FCC067
:10033800E12FE03031F4253211F411E001C0BFD1D2
:10034800F2C0E130A1F4253211F4B9D1EBC012E0CA
:1003580040E000E02D3211F401E0E5C02B3211F449
:100368004BE2E1C0203211F440E2DDC002C0E230CD
:1003780039F450E013E0203311F40068D4C003C00E
:10038800E33009F0D0C0203310F02A3308F007C05A
:10039800AAE05A9F502DE22FE0535E0FC4C0E22F0F
:1003A800E33639F493D195D191D1A481AA9395D10B
:1003B800B9C0E33729F497D198D1DAD01E2F07C0F6
:1003C800E03749F490D191D1DED01E2F0860026049
:1003D8000F7730E02DC0E43611F0E93611F40460EF
:1003E80002C0E53729F4E4E3F0E088D115E00BC05A
:1003F800E83511F4086003C0E83709F093C0EEE36C
:10040800F0E07CD114E002FF11C06DD17AD1AB8548
:10041800AA2332F4EA85FB8589D1EA87FB874DE276
:10042800403011F01F5F01C00B7F02C05CD169D161
:1004380000FD10C0151770F407FF08C002FF04C0C4
:100448000B7F242F115001C020E301C020E237D1D7
:100458005150F0CF312F01FF15C0303091F003FF1C
:1004680005C0EE81FF81259149D105C0AE81BF81CC
:100478002D91AE83BF8323D1503009F051503150B4
:10048800ECCF47C020E3EE81FF8158D1E887F98798
:10049800EE81FF81329632D1E885F985AA85BB8540
:1004A800AE17BF0750F02F5FA885B985EA85FB8591
:1004B800EA1BFB0BEA87FB87EFCF2A3328F003FF01
:1004C80002C0295F01C0295D04FD19C0213320F451
:1004D800A885B985119709F409C0531710F000FFD2
:1004E80001C011C020E207FF0AC020E3006102FF3B
:1004F80006C00B7F4A93F1D0503009F05150DFD03D
:10050800503009F051503150A885B985129708F03C
:10051800B9CF00FF07C0503029F05150E0E2EA930C
:10052800DCD0F9CF10E0F9CEAC85BD8503D116D16A
:1005380064960895FF92F82E26970DD1DE01149641
:10054800F1D08D01E0E0EC83ED83EE83EF83DE01F3
:100558001896E8D0EFD027D01A930A93EBE7F1E08A
:1005680022D0DE011896CFDEFDD02896FF900895A0
:10057800A3D0A991B991EE27FF276D91662311F0B9
:100588003196FBCF089598D0AA27BB27E991F99116
:100598000590002011F01196FBCFFD010895F0E0C1
:1005A800E050FE4F0895FA93EA930895A0E04C991D
:1005B800A1E0EA2FE795E0E0E7950E2EA0E04D993F
:1005C800A1E0EA2FE295E07FEE0FEE0F0E0EA0E01D
:1005D8004E99A1E0EA2FE295E07FEE0F0E0EA0E023
:1005E8004F99A1E0EA2FE295E07F0E0EA0E018995E
:1005F800A1E0EA2FEE0FEE0FEE0F0E0EA0E0199914
:10060800A1E0EA2FEE0FEE0F0E0EA0E01A99A1E07E
:10061800EA2FEE0FA02DAE0FE0E01B99E1E0EA0F04
:100628000895E0E6F0E0BFDFC1CFFF276627772710
:1006380089D00895A0E05B99A1E0EA2FE795E0E072
:10064800E7950E2EA0E05A99A1E0EA2FE295E07F07
:10065800EE0FEE0F0E0EA0E04599A1E0EA2FE2950D
:10066800E07FEE0F0E0EA0E04499A1E0EA2FE2959C
:10067800E07F0E0EA0E04399A1E0EA2FEE0FEE0F07
:10068800EE0F0E0EA0E04299A1E0EA2FEE0FEE0F5A
:100698000E0EA0E04199A1E0EA2FEE0FA02DAE0FBB
:1006A800E0E04099E1E0EA0FC0CF88E043DF2A9616
:1006B8000895E09102020895BA93AA9308952A939F
:1006C800AD85BE85EF85F88909950895E889F9898A
:1006D80008953497E88BF98B0895AD85BE85EF852D
:1006E800F88909950895F2DFF4CFA889B989149695
:1006F80021D0EE83FF83AE81BF810895EE83FF830F
:100708000895A889B989149615D0EA87FB870895B2
:10071800109639F088E893E10197F1F7A8951197B9
:10072800C9F708950024AF0DB01D0895F195E1951E
:10073800F0400895ED91FC91119708950590F4917A
:10074800E02D08957A936A93FA93EA9308955A9359
:100758004A933A932A931A930A9308955D814C8198
:100768003B812A8119810881089509911991089579
:00000001FF
