:0600000037C0FECFFDCF6A
:10000600FCCFFBCFFACFF9CFF8CFF7CFF6CFF5CFAE
:10001600F4CFF3CFF2CFF1CFF0CFEFCFEECF5CC07E
:10002600ECCFEBCFEACFE9CFE8CFE7CFE6CF10278B
:10003600E80364000A00010000100001100001003E
:10004600000000005475616E0D0A004C475F494E72
:100056003A25630D0A00524C5F4F555425630D0A2D
:1000660000000400030046000000F894EE27EFBBF2
:10007600F1E0F5BFE5BFF8E1A895A4B7A77FA4BF57
:10008600F0936000E09360008DE0A2E0BB27ED9363
:100096008A95E9F780E094E0A0E0B1E0ED9301975E
:1000A600E9F7E8E6F0E085919591009761F0A59172
:1000B600B59105901590BF01F00105900D9201973D
:1000C600E1F7FB01F0CFE0E0EEBBEFEFEDBFE4E0E0
:1000D600EEBFC0E0D2E01EC0EA93FA93EFB7EA9310
:1000E60052D31091C0000091C600E12FEC7161F46B
:1000F6000E3711F4E1E03E2EE42D43949DD20083A9
:10010600E7E0E41509F4442448D3E991EFBFF991F7
:10011600E9911895E0E8E0936100E0E0E093610082
:10012600E5B9E0E2E4B9E0E0E8B9EFE3E7B9E0E039
:10013600EBB9ECE0EAB9E0E0E4BDE5BDE6BDE7BD5C
:10014600E8BDE0938000E0938100E0938500E093B2
:100156008400E0938700E0938600E0938900E093B3
:100166008800E0938B00E0938A00E093B600E0936A
:10017600B000E093B100E093B200E093B300E093E7
:10018600B400E0936900EDBBE0936800E0936E0075
:10019600E0936F00E0937000E093C000E8E9E0931D
:1001A600C100E6E0E093C200E0E0E093C500E0E4D1
:1001B600E093C400E0E8E0BFE0E0E0937B00E0937A
:1001C6007F00E0937A00ECBDE093BC007894EAE40B
:1001D600F0E036D280E0FBD12296A8EEB3E0B0D2B2
:1001E60032D2EA0F6E2E332009F4B4C0A091000279
:1001F600A73481F4A0910102A53461F45ED251F4D2
:1002060060D241F4A0910402A23421F4A091050227
:10021600A43509F002C059D28FC0A0910002A734BC
:1002260081F4A0910102A53461F447D251F449D278
:1002360041F4A0910402A23521F4A0910502AC3448
:1002460009F001C03DC0A0910002AF3441F4A09175
:100256000102A53521F431D211F433D209F06EC072
:1002660038D2E07811F45B9801C05B9A32D2E07420
:1002760011F45A9801C05A9A2CD2E07211F445989A
:1002860001C0459A26D2E07111F4449801C0449AFF
:1002960020D2E87011F4439801C0439A1AD2E47050
:1002A60011F4429801C0429A14D2E27011F44198B6
:1002B60001C0419A0ED2E17011F4409801C0409AF3
:1002C600ECE5F0E0BDD1A0E05B99A1E0EA2FE7956F
:1002D600E0E0E7950E2EA0E05A99A1E0EA2FE2951C
:1002E600E07FEE0FEE0F0E0EA0E04599A1E0EA2F9B
:1002F600E295E07FEE0F0E0EA0E04499A1E0EA2F12
:10030600E295E07F0E0EA0E04399A1E0EA2FEE0F02
:10031600EE0FEE0F0E0EA0E04299A1E0EA2FEE0FCF
:10032600EE0F0E0EA0E04199A1E0EA2FEE0FA02DF0
:10033600AE0FE0E04099E1E0EA0FCED14424E7E0D9
:100346004E1630F4E42D78D1A0E0A0834394F7CF85
:100356004424332478D1EA0F5E2E651421F0B5D1FA
:10036600EA0FBAD1652C2D9AA3E0B0E0E9D12D9819
:100376003ACFFFCFAA93E091C000E072E1F3E881A3
:10038600E093C60021960895AFD1AA81F3DFA88134
:10039600B981ED91FD913196FE93EE9323960895E2
:1003A600A3D12697ECD110E0AC85BD85E0E0F0E066
:1003B600ED93FC93EA89FB893196EA8BFB8B3197A7
:1003C600E4912E2FE03009F4FCC0E12FE03031F447
:1003D600253211F411E001C08AD1F2C0E130A1F456
:1003E600253211F484D1EBC012E040E000E02D325A
:1003F60011F401E0E5C02B3211F44BE2E1C02032EA
:1004060011F440E2DDC002C0E23039F450E013E0FE
:10041600203311F40068D4C003C0E33009F0D0C023
:10042600203310F02A3308F007C0AAE05A9F502D57
:10043600E22FE0535E0FC4C0E22FE33639F45ED1FB
:1004460060D15CD1A481AA9360D1B9C0E33729F405
:1004560062D163D1DAD01E2F07C0E03749F45BD1F1
:100466005CD1DED01E2F086002600F7730E02DC011
:10047600E43611F0E93611F4046002C0E53729F4D8
:10048600E4E3F0E053D115E00BC0E83511F4086061
:1004960003C0E83709F093C0EEE3F0E047D114E07B
:1004A60002FF11C038D145D1AB85AA2332F4EA85C3
:1004B600FB8554D1EA87FB874DE2403011F01F5F80
:1004C60001C00B7F02C027D134D100FD10C0151723
:1004D60070F407FF08C002FF04C00B7F242F1150E1
:1004E60001C020E301C020E202D15150F0CF312FEC
:1004F60001FF15C0303091F003FF05C0EE81FF818A
:10050600259114D105C0AE81BF812D91AE83BF83E5
:10051600EED0503009F051503150ECCF47C020E3B7
:10052600EE81FF8123D1E887F987EE81FF8132963C
:10053600FDD0E885F985AA85BB85AE17BF0750F0C3
:100546002F5FA885B985EA85FB85EA1BFB0BEA8741
:10055600FB87EFCF2A3328F003FF02C0295F01C0D3
:10056600295D04FD19C0213320F4A885B9851197AA
:1005760009F409C0531710F000FF01C011C020E2B2
:1005860007FF0AC020E3006102FF06C00B7F4A9303
:10059600BCD0503009F05150AAD0503009F051501B
:1005A6003150A885B985129708F0B9CF00FF07C06A
:1005B600503029F05150E0E2EA93A7D0F9CF10E08D
:1005C600F9CEAC85BD85CED0E1D064960895FF9274
:1005D600F82E2697D8D0DE011496BCD08D01E0E027
:1005E600EC83ED83EE83EF83DE011896B3D0BAD0A9
:1005F60027D01A930A93E7ECF1E022D0DE01189691
:10060600CFDEC8D02896FF9008956ED0A991B991F3
:10061600EE27FF276D91662311F03196FBCF0895E3
:1006260063D0AA27BB27E991F9910590002011F024
:100636001196FBCFFD010895F0E0E050FE4F0895BE
:10064600FA93EA930895A0E04C99A1E0EA2FE79582
:10065600E0E0E7950E2EA0E04D99A1E0EA2FE295A5
:10066600E07FEE0FEE0F0E0EA0E04E99A1E0EA2F0E
:10067600E295E07FEE0F0E0EA0E04F99A1E0EA2F83
:10068600E295E07F0E0EA0E01899A1E0EA2FEE0FAA
:10069600EE0FEE0F0E0EA0E01999A1E0EA2FEE0F75
:1006A600EE0F0E0EA0E01A99A1E0EA2FEE0FA02D94
:1006B600AE0FE0E01B99E1E00895A0910202A43597
:1006C6000895A0910302AF350895E1E5F0E0B8DFA3
:1006D600BACFE09104020895FF27662777274AD00C
:1006E60084E075DF26960895BA93AA9308952A930F
:1006F600AD85BE85EF85F88909950895E889F9895C
:1007060008953497E88BF98B0895AD85BE85EF85FE
:10071600F88909950895F2DFF4CFA889B989149666
:1007260021D0EE83FF83AE81BF810895EE83FF83E0
:100736000895A889B989149615D0EA87FB87089584
:10074600109639F088E893E10197F1F7A89511978B
:10075600C9F708950024AF0DB01D0895F195E195F0
:10076600F0400895ED91FC91119708950590F4914C
:10077600E02D08957A936A93FA93EA9308955A932B
:100786004A933A932A931A930A9308955D814C816A
:100796003B812A811981088108950991199108954B
:00000001FF
