:0E00000032C0FECFFDCFFCCFFBCFFACFF9CF41
:10000E00F8CFF7CFF6CFF5CFF4CFF3CFF2CFF1CFC6
:10001E00F0CF58C0EECF45C0ECCF52C054C0E9CFA0
:10002E00E8CFE7CFE6CF1027E80364000A0001000F
:10003E000010000110000100486920616C6C003E48
:10004E004144432076616C75653A2025643B2564F6
:10005E003B2564200D0A0000F894EE27EFBBF1E07B
:10006E00F5BFE5BFF8E1A895A4B7A77FA4BFF093AD
:10007E006000E09360008DE0A2E0BB27ED938A95CF
:10008E00E9F780E094E0A0E0B1E0ED930197E9F7A5
:10009E00E0E0EEBBEFEFEDBFE4E0EEBFC0E0D2E09C
:1000AE0047C0EA93EFB7EA9386D21091C000009151
:1000BE00C600E12FEC7189D2E991EFBFE991189555
:1000CE004598189518958A93AA93BA93EA93FA933A
:1000DE00EFB7EA93E0910602A0E0B2E0F0E0EE0F97
:1000EE00FF1FAE0FBF1FE0917800F0917900ED93E6
:1000FE00FC93A0910602AF5FA0930602A33018F006
:10010E00E0E0E0930602E0910602EF5BE0937C00F4
:10011E0085E38A95F1F7E0917A00E064E0937A0046
:10012E00E991EFBFF991E991B991A991899118954A
:10013E00E0E8E0936100E0E0E0936100E5B9EFE113
:10014E00E4B9E0E0E8B9E1E2E7B9E0E0EBB9E0EF0D
:10015E00EAB9E0E0E4BDE5E0E5BDE0E0E6BDE7BD1F
:10016E00E8BDE0938000E0938100E0938500E0938A
:10017E008400E0938700E0938600E0938900E0938B
:10018E008800E0938B00E0938A00E093B600E09342
:10019E00B000E093B100E093B200E093B300E093BF
:1001AE00B400E0936900EDBBE0936800E1E0E093FA
:1001BE006E00E0E0E0936F00E0937000E2E0E09309
:1001CE00C000E8EDE093C100E6E0E093C200E0E09D
:1001DE00E093C500E0E1E093C400E0E8E0BFE0E0BA
:1001EE00E0937B00E0937F00E0937E00E1E4E093F8
:1001FE007C00ECECE0937A00E0E0ECBDE093BC0018
:10020E007894459AE6E4F0E080D180E049D12296D8
:10021E00459AEDE4F0E079D1E0910002F09101020F
:10022E0077D1E0910202F091030272D1E0910402C3
:10023E00F09105026DD18CE033D12E96A4E6B0E09C
:10024E0097D1E6CFFFCFAA93E091C000E072E1F321
:10025E00E881E093C600219608955ED1AA81F3DF6E
:10026E00A881B981ED91FD913196FE93EE9323967F
:10027E00089552D126979BD110E0AC85BD85E0E064
:10028E00F0E0ED93FC93EA89FB893196EA8BFB8BC8
:10029E003197E4912E2FE03009F4FCC0E12FE030CD
:1002AE0031F4253211F411E001C039D1F2C0E13040
:1002BE00A1F4253211F433D1EBC012E040E000E09E
:1002CE002D3211F401E0E5C02B3211F44BE2E1C006
:1002DE00203211F440E2DDC002C0E23039F450E0C9
:1002EE0013E0203311F40068D4C003C0E33009F0EA
:1002FE00D0C0203310F02A3308F007C0AAE05A9F6E
:10030E00502DE22FE0535E0FC4C0E22FE33639F4D6
:10031E000DD10FD10BD1A481AA930FD1B9C0E33760
:10032E0029F411D112D1DAD01E2F07C0E03749F4CB
:10033E000AD10BD1DED01E2F086002600F7730E09D
:10034E002DC0E43611F0E93611F4046002C0E53731
:10035E0029F4E4E3F0E002D115E00BC0E83511F426
:10036E00086003C0E83709F093C0EEE3F0E0F6D082
:10037E0014E002FF11C0E7D0F4D0AB85AA2332F40B
:10038E00EA85FB8503D1EA87FB874DE2403011F009
:10039E001F5F01C00B7F02C0D6D0E3D000FD10C09E
:1003AE00151770F407FF08C002FF04C00B7F242F3F
:1003BE00115001C020E301C020E2B1D05150F0CF66
:1003CE00312F01FF15C0303091F003FF05C0EE81D3
:1003DE00FF812591C3D005C0AE81BF812D91AE8323
:1003EE00BF839DD0503009F051503150ECCF47C0F3
:1003FE0020E3EE81FF81D2D0E887F987EE81FF817D
:10040E003296ACD0E885F985AA85BB85AE17BF07B5
:10041E0050F02F5FA885B985EA85FB85EA1BFB0B9B
:10042E00EA87FB87EFCF2A3328F003FF02C0295F4C
:10043E0001C0295D04FD19C0213320F4A885B985BA
:10044E00119709F409C0531710F000FF01C011C035
:10045E0020E207FF0AC020E3006102FF06C00B7F07
:10046E004A936BD0503009F0515059D0503009F0AA
:10047E0051503150A885B985129708F0B9CF00FFB9
:10048E0007C0503029F05150E0E2EA9356D0F9CF30
:10049E0010E0F9CEAC85BD857DD090D064960895E0
:1004AE00FF92F82E269787D0DE0114966BD08D0121
:1004BE00E0E0EC83ED83EE83EF83DE01189662D0ED
:1004CE0069D023D01A930A93E4E3F1E01ED0DE0143
:1004DE001896CFDE77D02896FF9008951DD0A9915B
:1004EE00B991EE27FF276D91662311F03196FBCF60
:1004FE00089512D0AA27BB27E991F9910590002003
:10050E0011F01196FBCFFD010895FA93EA93089529
:10051E006627772747D00895BA93AA9308952A930A
:10052E00AD85BE85EF85F88909950895E889F98925
:10053E0008953497E88BF98B0895AD85BE85EF85C8
:10054E00F88909950895F2DFF4CFA889B989149630
:10055E0021D0EE83FF83AE81BF810895EE83FF83AA
:10056E000895A889B989149615D0EA87FB8708954E
:10057E00109639F080EA9FE00197F1F7A895119750
:10058E00C9F708950024AF0DB01D0895F195E195BA
:10059E00F0400895ED91FC91119708950590F49116
:1005AE00E02D08957A936A93FA93EA9308955A93F5
:1005BE004A933A932A931A930A9308955D814C8134
:1005CE003B812A8119810881089509911991089515
:00000001FF
