:0A00000046C0FECFFDCFFCCFFBCFC2
:10000A00FACFF9CFF8CFF7CFF6CFF5CFF4CFF3CFBA
:10001A00F2CFF1CFF0CFDBC0EECFF3C0ECCF15C1FA
:10002A00EACFE9CFE8CFE7CFE6CF1027E8036400AD
:10003A000A00010000100001100001000001002266
:10004A0000000000000000000D0A3E4F4D432055FD
:10005A006E697420763120667776312031302F3000
:10006A00342F323031360D0A003E4F4D432530329F
:10007A005825303458253032583C00000C00030013
:10008A0046000000F894EE27EFBBF1E0F5BFE5BFAC
:10009A008DE0A2E0BB27ED938A95E9F780E094E032
:1000AA00A0E0B1E0ED930197E9F7E6E8F0E0859189
:1000BA009591009761F0A591B59105901590BF01B2
:1000CA00F00105900D920197E1F7FB01F0CFE0E016
:1000DA00EEBBEFEFEDBFE4E0EEBFC0E0D2E0B7C0A9
:1000EA00AA93A881A03310F0AA3308F003C0E881CC
:1000FA00E05399C1A881A03410F0A73408F003C0D6
:10010A00E881E75390C18FC1E0E8E0936100E0E045
:10011A00E0936100EFE3E4B9E0E0E5B9E0E3E7B9D1
:10012A00E0E0E8B9E0EFEAB9E0E0EBB9E4BDE2E02B
:10013A00E5BDE8E3E6BDE0E0E7BDE8BDE0938000A9
:10014A00E0938100E0938500E0938400E0938700C8
:10015A00E0938600E0938900E0938800E0938B00A7
:10016A00E0938A00E093B600E093B000E093B10018
:10017A00E093B200E093B300E093B400E1E0E093CF
:10018A006E00E0E0E0936F00E0937000E093690096
:10019A00EDBBE0936800E2E0E093C000E8EDE09395
:1001AA00C100E6E0E093C200E0E0E093C500E0E1D0
:1001BA00E093C400E0E8E0BFE0E0E0937B00E09376
:1001CA007F00E0937A00ECBDE093BC0008950A92A8
:1001DA00EA93FA93EFB7EA93E8E3E6BDE1E0E715BD
:1001EA0051F4EB2DFC2D3197BE2ECF2E0B2C0C2863
:1001FA0011F4E1E05E2EE991EFBFF991E9910990DE
:10020A001895EA93FA93EFB7EA9310D31091C000C6
:10021A000091C60062D2E12FEC7181F4E92D93942A
:10022A00F0E0E050FE4F0083E2E3E91509F4992477
:10023A00E394E2E3EE1511F4EE24F09A0991199190
:10024A00E991EFBFF991E9911895459818955CDF06
:10025A007894459AE2E5F0E048D280E009D2229605
:10026A003C98449A3AD2E1E0AE2EE1E0E51519F461
:10027A0055247724AE2EE1E0EA1509F073C0A09167
:10028A000002AE3391F5A0910102A33471F5A09159
:10029A000202A03551F5A0910302A53531F5A091CE
:1002AA000C02AC3311F5A091050222D2FF93EF9311
:1002BA00A09104021DD297D2AF91BF91AE0FBF1F7A
:1002CA00E42DF0E018D289F4A0910B0211D2FF9329
:1002DA00EF93A0910A020CD286D2AF91BF91AE0FD2
:1002EA00BF1FE62DF0E007D209F02EC0A091070249
:1002FA00FFD1FF93EF93A0910602FAD174D2AF9186
:10030A00BF91AE0FBF1FFD01FE2FE0E0FF93EF93F9
:10031A00A0910902EDD1AF91BF91EA0FFB1FFF93A4
:10032A00EF93A0910802DCDEA0E1EA9FF001AF9111
:10033A00BF91EA0FFB1FE2D1E6D121F0EDD120F007
:10034A00F3D1DCD1459AF5D1AA248824E2E38E16AA
:10035A0040F4E82DF0E0E050FE4FA0E0A083839443
:10036A00F5CF9924D0D111F0D7D108F052C0E0913D
:10037A003202F0913302E0933402F0933502E091B5
:10038A003402E17011F4289801C0289ACDD1F6956B
:10039A00E795E17011F45F9801C05F9AC5D130D238
:1003AA00E17011F45E9801C05E9ABED127D2E17065
:1003BA0011F45D9801C05D9AB7D11ED2E17011F4B3
:1003CA005C9801C05C9ACAD1E5E0CDD111F42D98B0
:1003DA0001C02D9AC3D1E6E0C6D111F42C9801C010
:1003EA002C9ABCD1E7E0BFD111F42B9801C02B9A0B
:1003FA00E0913502F070E17011F42A9801C02A9A4E
:10040A00ADD1E9E0B0D111F4299801C0299A459AF1
:10041A0090D12BCFFFCFAA93E091C000E072E1F315
:10042A00E881E093C60021960895A0D1AA81F3DF5E
:10043A00A881B981ED91FD913196FE93EE932396B1
:10044A00089594D12697EED110E0AC85BD85E0E001
:10045A00F0E0ED93FC93EA89FB893196EA8BFB8BFA
:10046A003197E4912E2FE03009F4FCC0E12FE030FF
:10047A0031F4253211F411E001C07BD1F2C0E13030
:10048A00A1F4253211F475D1EBC012E040E000E08E
:10049A002D3211F401E0E5C02B3211F44BE2E1C038
:1004AA00203211F440E2DDC002C0E23039F450E0FB
:1004BA0013E0203311F40068D4C003C0E33009F01C
:1004CA00D0C0203310F02A3308F007C0AAE05A9FA0
:1004DA00502DE22FE0535E0FC4C0E22FE33639F409
:1004EA004FD151D14DD1A481AA9351D1B9C0E3378B
:1004FA0029F453D154D1DAD01E2F07C0E03749F47A
:10050A004CD14DD1DED01E2F086002600F7730E04B
:10051A002DC0E43611F0E93611F4046002C0E53763
:10052A0029F4E4E3F0E044D115E00BC0E83511F416
:10053A00086003C0E83709F093C0EEE3F0E038D171
:10054A0014E002FF11C029D136D1AB85AA2332F4B7
:10055A00EA85FB853BD1EA87FB874DE2403011F003
:10056A001F5F01C00B7F02C018D125D100FD10C04A
:10057A00151770F407FF08C002FF04C00B7F242F71
:10058A00115001C020E301C020E2F3D05150F0CF56
:10059A00312F01FF15C0303091F003FF05C0EE8105
:1005AA00FF81259105D105C0AE81BF812D91AE8312
:1005BA00BF83DFD0503009F051503150ECCF47C0E3
:1005CA0020E3EE81FF8125D1E887F987EE81FF815B
:1005DA003296EED0E885F985AA85BB85AE17BF07A6
:1005EA0050F02F5FA885B985EA85FB85EA1BFB0BCE
:1005FA00EA87FB87EFCF2A3328F003FF02C0295F7F
:10060A0001C0295D04FD19C0213320F4A885B985EC
:10061A00119709F409C0531710F000FF01C011C067
:10062A0020E207FF0AC020E3006102FF06C00B7F39
:10063A004A93ADD0503009F051509BD0503009F058
:10064A0051503150A885B985129708F0B9CF00FFEB
:10065A0007C0503029F05150E0E2EA9398D0F9CF20
:10066A0010E0F9CEAC85BD85D0D0E3D0649608956C
:10067A00FF92F82E2697DAD0DE011496A3D08D01C8
:10068A00E0E0EC83ED83EE83EF83DE0118969AD0E7
:10069A00BCD02BD01A930A93EAE1F2E026D0DE010D
:1006AA001896CFDECAD02896FF9008955FD0A991F8
:1006BA00B991EE27FF276D91662311F03196FBCF92
:1006CA00089554D0AA27BB27E991F99105900020F3
:1006DA0011F01196FBCFFD010895E4EFF1E0BE2E73
:1006EA00CF2E5524E1E07E2E0895FA93EA930895D9
:1006FA00F7DCF0E00895EA17FB070895E093320269
:10070A00F09333020895E0913202F0913302A091FE
:10071A003402B0913502EFCFA0913202B091330288
:10072A00A030E4E0BE070895E0913402F09135026A
:10073A000895E3E7F0E0D9DFE32DFF27662777275F
:10074A006CD0F2DF6627772768D0E62DFF27662769
:10075A00772763D08CE08CDF2E960895A09134021F
:10076A00B0913502089536D0E1700895BA93AA93EC
:10077A0008952A93AD85BE85EF85F8890995089570
:10078A00E889F98908953497E88BF98B0895AD853E
:10079A00BE85EF85F88909950895F2DFF4CFA88917
:1007AA00B989149632D0EE83FF83AE81BF81089552
:1007BA00EE83FF830895A889B989149626D0EA871B
:1007CA00FB8708950024AF0DB01D0895F195E195BA
:1007DA00F0400895EE230E2EFD0121F0F695E795DF
:1007EA000A94E1F70895EE0FFF1FEE0FFF1FEE0FB9
:1007FA00FF1FEE0FFF1F0895F695E795F695E7950B
:10080A00F695E795F695E7950895ED91FC91119780
:10081A0008950590F491E02D08957A936A93FA93D6
:10082A00EA9308955A934A933A932A931A930A9306
:10083A0008955D814C813B812A811981088108953F
:00000001FF
