:020000007DC0C1
:10000200FECFFDCFFCCFFBCFFACFF9CFF8CFF7CFA2
:10001200F6CFF5CFF4CFF3CFF2CFF1CFF0CFEDC0E3
:10002200EECFECC0ECCF0AC1B3C0E9CFE8CFE7CF47
:10003200E6CF1027E80364000A0001000010000167
:10004200100001000100000000000000000000009C
:100052000D0A3E4F4D4320556E697420763120665D
:100062007776312031302F30342F323031360D0A4D
:10007200006F6D635F7374743A25780D0A00435004
:100082005520636D643A25780D0A00596F75206119
:10009200726520686572653A2573210D0A003E314A
:1000A20030323A25303258253032582530325825F0
:1000B20030325825303258253034582530345825BE
:1000C20030345825303458253032582530325825AE
:1000D200303258213C002573003E3330323A25300D
:1000E2003258253034582530325825303258213C88
:1000F20000000B00040046000000F894EE27EFBB5E
:10010200F1E0F5BFE5BFF8E1A895A4B7A77FA4BFCA
:10011200F0936000E09360008DE0A2E0BB27ED93D6
:100122008A95E9F780E094E0A0E0B1E0ED930197D1
:10013200E9F7E4EFF0E085919591009761F0A591E0
:10014200B59105901590BF01F00105900D920197B0
:10015200E1F7FB01F0CFE0E0EEBBEFEFEDBFE4E053
:10016200EEBFC0E0D2E06CC0AA93A881A03310F029
:10017200AA3308F003C0E881E053FEC1A881A0348D
:1001820010F0A73408F003C0E881E753F5C1F4C1C9
:100192008A93AA93BA93EA93FA93EFB7EA93E09118
:1001A2002002AAE1B2E08FD3EE0FFF1FAE0FBF1FF6
:1001B200E0917800F0917900ED93FC93A0912002F8
:1001C200AF5FA0932002A33018F0E0E0E09320029A
:1001D200E0912002EF5BE0937C0085E38A95F1F7E2
:1001E200E0917A00E064E0937A00E991EFBFF9913F
:1001F200E991B991A991899118951895EA93FA9381
:10020200EFB7EA931A933090C0001091C600EFEF57
:10021200E0935302DD24E32DEC7151F4EE2DE394CF
:1002220052D3EF5DFD4F1083E1E3EE1508F44DD399
:100232001991E991EFBFF991E991189545981895AF
:10024200E297E0E8E0936100E0E0E0936100E5B965
:10025200EFE3E4B9E0E0E8B9E0E3E7B9E0E0EBB905
:10026200E0EFEAB9E0E0E0938000E0938100E09300
:100272008500E0938400E0938700E0938600E0939A
:100282008900E0938800E0938B00E0938A00E0937A
:10029200B600E093B000E093B100E093B200E093C7
:1002A200B300E093B400E0936900EDBBE093680013
:1002B200E4BDE5E0E5BDE0E0E6BDE7BDE8BDE1E0C7
:1002C200E0936E00E0E0E0936F00E0937000E2E004
:1002D200E093C000E8EDE093C100E6E0E093C200E5
:1002E200E0E0E093C500E0E1E093C400E0E8E0BFB5
:1002F200E0E0E0937B00E0937F00E0937A00ECBDC6
:10030200E093BC00A8EEB3E090D37894E1E2F2E08F
:10031200E0935402F0935502459AE2E5F0E0DDD213
:1003220080E0A0D22296D1D23C98449A5714680415
:1003320009F442C0752C862C70FC02C0289801C0BA
:10034200289A71FC02C05F9801C05F9A72FC02C0D9
:100352005E9801C05E9A73FC02C05D9801C05D9A0E
:1003620074FC02C05C9801C05C9A75FC02C02D98B6
:1003720001C02D9A76FC02C02C9801C02C9A77FC01
:1003820002C02B9801C02B9AE72DE07011F42A9835
:1003920001C02A9AE72DE07011F4299801C0299A28
:1003A200459A9ED2DED27E2E8824E3E7F0E095D2F3
:1003B20097D2D7D2DED2E2D2DD2029F4E0915302E5
:1003C200E150E0935302A0915302A13009F060C0C2
:1003D200E1E0DE2EE0E0E0935302A5E0B0E025D3B9
:1003E200A0912102AE3381F4A0912202A33461F4E0
:1003F200A0912302A03541F4A0912402A53521F455
:10040200A0912D02AC3309F031C0459AA091280287
:10041200ABDE59D2FF93EF93A0912702A5DE53D210
:100422001ED3AF91BF91AE0FBF1FFD01FE2FE0E0C3
:10043200FF93EF93A0912A0297DE45D2AF91BF912D
:10044200EA0FFB1FFF93EF93A09129028DDEA0E13B
:10045200EA9FF001AF91BF91EA0FFB1F5E2E6F2E54
:10046200E0E8F0E03AD2E52DF62D8CD2EDE8F0E0AE
:1004720034D2E1E2F2E086D210E0123340F4E12F0E
:1004820022D2EF5DFD4FA0E0A0831F5FF6CFEE24E6
:10049200E8E9F8E0E915FA050CF045C0FE011DD2C5
:1004A200E0EAF0E01AD2E091020263D2E0910102A6
:1004B20060D2E09104025DD2E09105025AD2E0914D
:1004C200060257D2E0911102F09112025FD2E0913E
:1004D2000F02F09110025AD2E0910D02F0910E0239
:1004E20055D2E0910B02F0910C0250D2E09115022C
:1004F200EAD1B9D2DF01E0911402E5D1EE0FFF1F7C
:10050200AE0FBF1FE0911302DED1EA0FFB1F3ED2F6
:10051200ECE3F0E060E070E03CD280E37DD1E49671
:100522003FD29924AA24E0EBF4E0EB15FC05D4F4C5
:10053200FE01D3D1EBEDF0E0D0D1E0911802F091C1
:10054200190224D2E0911602F09117021FD2EDE3B4
:10055200F0E060E070E01DD280E15ED1649620D2CE
:10056200BB24CC24E3CEFFCFAA93E091C000E0727B
:10057200E1F3E881E093C6002196089518D2AA819A
:10058200F3DFA881B98116D22396089510D286D2BC
:1005920017D2129672D23097F1F012D214D28F0182
:1005A200309761F00230E0E01E07A0F0F8013197C9
:1005B2008F01AA81BB811496ED93FC9301D212960E
:1005C200F9D13197AC81A083FBD157D2FF2312F02E
:1005D200F7D1F0D105C0F4D1EFEFFFEFED93FC932B
:1005E20064D225960895E3D1269754D210E0AC85C3
:1005F200BD85E0E0F0E0ED93FC93EA89FB8931965A
:10060200EA8BFB8B3197E4912E2FE03009F4FEC088
:10061200E12FE03031F4253211F411E001C0D6D1DE
:10062200F4C0E130A1F4253211F4D0D1EDC012E0D2
:1006320040E000E02D3211F401E0E7C02B3211F46A
:100642004BE2E3C0203211F440E2DFC002C0E230EC
:1006520039F450E013E0203311F40068D6C003C02F
:10066200E33009F0D2C0203310F02A3308F007C07B
:10067200AAE05A9F502DE22FE0535E0FC6C0E22F30
:10068200E33639F4AAD1ACD1A8D1A481AA93ACD1D2
:10069200BBC0E33731F4AED1AFD1B1D1FDD01E2F03
:1006A20008C0E03751F4A6D1A7D1A9D100D11E2F9D
:1006B200086002600F7730E02EC0E43611F0E936B0
:1006C20011F4046002C0E53729F4E4E3F0E09CD1C0
:1006D20015E00BC0E83511F4086003C0E83709F0F3
:1006E20093C0EEE3F0E090D114E002FF11C082D19A
:1006F20083D18DD1AB85AA232AF4EA85FB85A3D1C8
:1007020086D14DE2403011F01F5F01C00B7F03C064
:1007120071D172D17CD100FD10C0151770F407FFA2
:1007220008C002FF04C00B7F242F115001C020E338
:1007320001C020E24BD15150F0CF312F01FF15C043
:10074200303091F003FF05C0EE81FF8125915CD12D
:1007520005C0AE81BF812D91AE83BF8337D15030AA
:1007620009F051503150ECCF46C020E3EE81FF81B9
:1007720088D1E887F987EE81FF81329645D1E885F5
:10078200F985AA85BB85AE17BF0748F02F5FA885FC
:10079200B985EA85FB85EA1BFB0B39D1F0CF2A33F9
:1007A20028F003FF02C0295F01C0295D04FD19C0C2
:1007B200213320F4A885B985119709F409C053178C
:1007C20010F000FF01C011C020E207FF0AC020E3C1
:1007D200006102FF06C00B7F4A9306D1503009F038
:1007E2005150F4D0503009F051503150A885B9859C
:1007F200129708F0BACF00FF07C0503029F05150CD
:10080200E0E2EA93F1D0F9CF10E0F7CEAC85BD85F6
:1008120034D147D164960895FF92F82E26973CD1A1
:10082200F9D0309719F4EFEFFFEF18C0DE011696FA
:1008320006D18D01EFD0E8D0E0E0E887E987DE015C
:100842001A96EDD0E7ECF2E048D0DE011A96CBDE44
:100852009F01AE81BF81E0E0EC93F90124D12A9699
:10086200FF900895FF92F82E269718D1DE01149674
:10087200E6D08D01E0E0EC83ED83EE83EF83DE01D1
:100882001896CDD0EFEBF2E028D0DE011896ABDE61
:100892000CD12896FF9008958AD0A991B991EE279C
:1008A200FF276D91662311F03196FBCF08957FD01B
:1008B200AA27BB27E991F9910590002011F0119622
:1008C200FBCFFD010895F0E00895EE24E1E2F2E0AD
:1008D200E0935402F09355020895FA93EA9308952F
:1008E200A0E02999A1E0E9E0B2D01E2EA0E02A9969
:1008F200A1E0E8E0ACD0E10D0E2EA0E02B99A1E042
:10090200EA2FE795E0E0E7950E0EA0E02C99A1E032
:10091200EA2FE295E07FEE0FEE0F0E0EA0E02D998A
:10092200A1E0EA2FE295E07FEE0F0E0EA0E05C99C7
:10093200A1E0EA2FE295E07F0E0EA0E05D99A1E032
:10094200EA2FEE0FEE0FEE0F0E0EA0E05E99A1E081
:10095200EA2FEE0FEE0F0E0EA0E05F99A1E0EA2F54
:100962000895EE0FA02DAE0FE0E02899E1E0EA0F26
:100972000895FF276627772788D0089584E072DFDD
:10098200269608956627772780D0F8CF71D07DD03C
:1009920008957BD0E6E6F0E060E070E076D008955E
:1009A200459AE8EDF0E099DFFE013296EBCFBA937B
:1009B200AA930895ED91FD913196FE93EE930895D9
:1009C200AA81BB810895149658D008952A93AD85C3
:1009D200BE85EF85F88909950895E889F989089512
:1009E2003497E88BF98B0895AD85BE85EF85F8893C
:1009F20009950895F2DFF4CFA889B989E4CFEE838F
:100A0200FF83AE81BF810895EE83FF830895EA8755
:100A1200FB870895DE011C9612D02FD008950FD0C7
:100A22002CD05BDF1A930A930895109639F080EA6E
:100A32009FE00197F1F7A8951197C9F7089500244F
:100A4200AF0DB01D0895F195E195F0400895EE23A4
:100A52000E2EEA2F19F0EE0F0A94E9F70895EE0F21
:100A6200FF1FEE0FFF1FEE0FFF1FEE0FFF1F089578
:100A72006F2F660F660B762F0895ED91FC911197FB
:100A820008950590F491E02D08957A936A93FA936C
:100A9200EA9308955A934A933A932A931A930A939C
:100AA20008955D814C813B812A81198108810895D5
:00000001FF
